{
  "_format": "hh-sol-artifact-1",
  "contractName": "SplitProxy",
  "sourceName": "contracts/splits/SplitProxy.sol",
  "abi": [
    {
      "inputs": [],
      "stateMutability": "nonpayable",
      "type": "constructor"
    },
    {
      "stateMutability": "payable",
      "type": "fallback"
    },
    {
      "inputs": [
        {
          "internalType": "uint256",
          "name": "",
          "type": "uint256"
        }
      ],
      "name": "balanceForWindow",
      "outputs": [
        {
          "internalType": "uint256",
          "name": "",
          "type": "uint256"
        }
      ],
      "stateMutability": "view",
      "type": "function"
    },
    {
      "inputs": [],
      "name": "currentWindow",
      "outputs": [
        {
          "internalType": "uint256",
          "name": "",
          "type": "uint256"
        }
      ],
      "stateMutability": "view",
      "type": "function"
    },
    {
      "inputs": [],
      "name": "merkleRoot",
      "outputs": [
        {
          "internalType": "bytes32",
          "name": "",
          "type": "bytes32"
        }
      ],
      "stateMutability": "view",
      "type": "function"
    },
    {
      "inputs": [],
      "name": "splitter",
      "outputs": [
        {
          "internalType": "address",
          "name": "",
          "type": "address"
        }
      ],
      "stateMutability": "view",
      "type": "function"
    },
    {
      "stateMutability": "payable",
      "type": "receive"
    }
  ],
  "bytecode": "0x608060405234801561001057600080fd5b503373ffffffffffffffffffffffffffffffffffffffff16633cd8045e6040518163ffffffff1660e01b8152600401602060405180830381600087803b15801561005957600080fd5b505af115801561006d573d6000803e3d6000fd5b505050506040513d601f19601f820116820180604052508101906100919190610246565b600360006101000a81548173ffffffffffffffffffffffffffffffffffffffff021916908373ffffffffffffffffffffffffffffffffffffffff1602179055503373ffffffffffffffffffffffffffffffffffffffff16634f0e0ef36040518163ffffffff1660e01b8152600401602060405180830381600087803b15801561011957600080fd5b505af115801561012d573d6000803e3d6000fd5b505050506040513d601f19601f820116820180604052508101906101519190610246565b600260006101000a81548173ffffffffffffffffffffffffffffffffffffffff021916908373ffffffffffffffffffffffffffffffffffffffff1602179055503373ffffffffffffffffffffffffffffffffffffffff16632eb4a7ab6040518163ffffffff1660e01b8152600401602060405180830381600087803b1580156101d957600080fd5b505af11580156101ed573d6000803e3d6000fd5b505050506040513d601f19601f82011682018060405250810190610211919061026f565b600081905550610302565b60008151905061022b816102d4565b92915050565b600081519050610240816102eb565b92915050565b60006020828403121561025857600080fd5b60006102668482850161021c565b91505092915050565b60006020828403121561028157600080fd5b600061028f84828501610231565b91505092915050565b60006102a3826102b4565b9050919050565b6000819050919050565b600073ffffffffffffffffffffffffffffffffffffffff82169050919050565b6102dd81610298565b81146102e857600080fd5b50565b6102f4816102aa565b81146102ff57600080fd5b50565b610382806103116000396000f3fe6080604052600436106100435760003560e01c80632eb4a7ab146100965780633cd8045e146100c157806381e580d3146100ec578063ba0bafb41461012957610063565b3661006357346006600082825461005a919061026a565b92505081905550005b600061006d610154565b905060405136600082376000803683855af43d806000843e8160008114610092578184f35b8184fd5b3480156100a257600080fd5b506100ab61017e565b6040516100b89190610234565b60405180910390f35b3480156100cd57600080fd5b506100d6610154565b6040516100e39190610219565b60405180910390f35b3480156100f857600080fd5b50610113600480360381019061010e91906101c3565b610184565b604051610120919061024f565b60405180910390f35b34801561013557600080fd5b5061013e6101a8565b60405161014b919061024f565b60405180910390f35b6000600360009054906101000a900473ffffffffffffffffffffffffffffffffffffffff16905090565b60005481565b6004818154811061019457600080fd5b906000526020600020016000915090505481565b60015481565b6000813590506101bd81610335565b92915050565b6000602082840312156101d557600080fd5b60006101e3848285016101ae565b91505092915050565b6101f5816102c0565b82525050565b610204816102d2565b82525050565b610213816102fc565b82525050565b600060208201905061022e60008301846101ec565b92915050565b600060208201905061024960008301846101fb565b92915050565b6000602082019050610264600083018461020a565b92915050565b6000610275826102fc565b9150610280836102fc565b9250827fffffffffffffffffffffffffffffffffffffffffffffffffffffffffffffffff038211156102b5576102b4610306565b5b828201905092915050565b60006102cb826102dc565b9050919050565b6000819050919050565b600073ffffffffffffffffffffffffffffffffffffffff82169050919050565b6000819050919050565b7f4e487b7100000000000000000000000000000000000000000000000000000000600052601160045260246000fd5b61033e816102fc565b811461034957600080fd5b5056fea2646970667358221220a2fb124a986eb169aea0bf804375e5ba789a92e0399149c268025f83793ce53f64736f6c63430008040033",
  "linkReferences": {},
  "deployedLinkReferences": {}
}