{
  "_format": "hh-sol-artifact-1",
  "contractName": "Splitter",
  "sourceName": "contracts/splits/Splitter.sol",
  "abi": [
    {
      "anonymous": false,
      "inputs": [
        {
          "indexed": false,
          "internalType": "address",
          "name": "account",
          "type": "address"
        },
        {
          "indexed": false,
          "internalType": "uint256",
          "name": "amount",
          "type": "uint256"
        },
        {
          "indexed": false,
          "internalType": "bool",
          "name": "success",
          "type": "bool"
        }
      ],
      "name": "TransferETH",
      "type": "event"
    },
    {
      "anonymous": false,
      "inputs": [
        {
          "indexed": false,
          "internalType": "uint256",
          "name": "currentWindow",
          "type": "uint256"
        },
        {
          "indexed": false,
          "internalType": "uint256",
          "name": "fundsAvailable",
          "type": "uint256"
        }
      ],
      "name": "WindowIncremented",
      "type": "event"
    },
    {
      "inputs": [],
      "name": "PERCENTAGE_SCALE",
      "outputs": [
        {
          "internalType": "uint256",
          "name": "",
          "type": "uint256"
        }
      ],
      "stateMutability": "view",
      "type": "function"
    },
    {
      "inputs": [
        {
          "internalType": "uint256",
          "name": "",
          "type": "uint256"
        }
      ],
      "name": "balanceForWindow",
      "outputs": [
        {
          "internalType": "uint256",
          "name": "",
          "type": "uint256"
        }
      ],
      "stateMutability": "view",
      "type": "function"
    },
    {
      "inputs": [
        {
          "internalType": "uint256",
          "name": "window",
          "type": "uint256"
        },
        {
          "internalType": "address",
          "name": "account",
          "type": "address"
        },
        {
          "internalType": "uint256",
          "name": "scaledPercentageAllocation",
          "type": "uint256"
        },
        {
          "internalType": "bytes32[]",
          "name": "merkleProof",
          "type": "bytes32[]"
        }
      ],
      "name": "claim",
      "outputs": [],
      "stateMutability": "nonpayable",
      "type": "function"
    },
    {
      "inputs": [
        {
          "internalType": "address",
          "name": "account",
          "type": "address"
        },
        {
          "internalType": "uint256",
          "name": "percentageAllocation",
          "type": "uint256"
        },
        {
          "internalType": "bytes32[]",
          "name": "merkleProof",
          "type": "bytes32[]"
        }
      ],
      "name": "claimForAllWindows",
      "outputs": [],
      "stateMutability": "nonpayable",
      "type": "function"
    },
    {
      "inputs": [],
      "name": "currentWindow",
      "outputs": [
        {
          "internalType": "uint256",
          "name": "",
          "type": "uint256"
        }
      ],
      "stateMutability": "view",
      "type": "function"
    },
    {
      "inputs": [],
      "name": "incrementWindow",
      "outputs": [],
      "stateMutability": "nonpayable",
      "type": "function"
    },
    {
      "inputs": [
        {
          "internalType": "uint256",
          "name": "window",
          "type": "uint256"
        },
        {
          "internalType": "address",
          "name": "account",
          "type": "address"
        }
      ],
      "name": "isClaimed",
      "outputs": [
        {
          "internalType": "bool",
          "name": "",
          "type": "bool"
        }
      ],
      "stateMutability": "view",
      "type": "function"
    },
    {
      "inputs": [],
      "name": "merkleRoot",
      "outputs": [
        {
          "internalType": "bytes32",
          "name": "",
          "type": "bytes32"
        }
      ],
      "stateMutability": "view",
      "type": "function"
    },
    {
      "inputs": [
        {
          "internalType": "uint256",
          "name": "amount",
          "type": "uint256"
        },
        {
          "internalType": "uint256",
          "name": "scaledPercent",
          "type": "uint256"
        }
      ],
      "name": "scaleAmountByPercentage",
      "outputs": [
        {
          "internalType": "uint256",
          "name": "scaledAmount",
          "type": "uint256"
        }
      ],
      "stateMutability": "pure",
      "type": "function"
    }
  ],
  "bytecode": "0x608060405234801561001057600080fd5b50611273806100206000396000f3fe608060405234801561001057600080fd5b50600436106100935760003560e01c80633f26479e116100665780633f26479e146100f857806381e580d3146101165780638ffb5c9714610146578063ba0bafb414610176578063d2ef07951461019457610093565b80631e7df9d3146100985780632e7ba6ef146100b45780632eb4a7ab146100d0578063338b1d31146100ee575b600080fd5b6100b260048036038101906100ad9190610a17565b6101c4565b005b6100ce60048036038101906100c99190610b11565b610302565b005b6100d861048f565b6040516100e59190610e11565b60405180910390f35b6100f6610495565b005b61010061057a565b60405161010d9190610eac565b60405180910390f35b610130600480360381019061012b9190610aac565b610581565b60405161013d9190610eac565b60405180910390f35b610160600480360381019061015b9190610b91565b6105a5565b60405161016d9190610eac565b60405180910390f35b61017e6105d5565b60405161018b9190610eac565b60405180910390f35b6101ae60048036038101906101a99190610ad5565b6105db565b6040516101bb9190610df6565b60405180910390f35b61021b828280806020026020016040519081016040528093929190818152602001838360200280828437600081840152601f19601f82011690508083019250505050505050600054610216878761060f565b610642565b61025a576040517f08c379a000000000000000000000000000000000000000000000000000000000815260040161025190610e6c565b60405180910390fd5b6000805b6001548110156102ef5761027281876105db565b6102dc57610280818761071e565b6102ce600482815481106102bd577f4e487b7100000000000000000000000000000000000000000000000000000000600052603260045260246000fd5b9060005260206000200154866105a5565b826102d99190610f0c565b91505b80806102e79061103f565b91505061025e565b506102fa8582610757565b505050505050565b8460015411610346576040517f08c379a000000000000000000000000000000000000000000000000000000000815260040161033d90610e8c565b60405180910390fd5b61035085856105db565b15610390576040517f08c379a000000000000000000000000000000000000000000000000000000000815260040161038790610e2c565b60405180910390fd5b61039a858561071e565b6103f1828280806020026020016040519081016040528093929190818152602001838360200280828437600081840152601f19601f820116905080830192505050505050506000546103ec878761060f565b610642565b610430576040517f08c379a000000000000000000000000000000000000000000000000000000000815260040161042790610e6c565b60405180910390fd5b6104878461048260048881548110610471577f4e487b7100000000000000000000000000000000000000000000000000000000600052603260045260246000fd5b9060005260206000200154866105a5565b610757565b505050505050565b60005481565b60008060015414156104a9574790506104af565b60065490505b6000600681905550600081116104fa576040517f08c379a00000000000000000000000000000000000000000000000000000000081526004016104f190610e4c565b60405180910390fd5b600481908060018154018082558091505060019003906000526020600020016000909190919091505560018060008282546105359190610f0c565b925050819055507ff0840b82b46c1dc7df62cae652baa1b5588ce37b6a1236ed1dcf4caf34d738ac6001548260405161056f929190610ec7565b60405180910390a150565b620f424081565b6004818154811061059157600080fd5b906000526020600020016000915090505481565b6000620f424060646105b79190610f93565b82846105c39190610f93565b6105cd9190610f62565b905092915050565b60015481565b6000600560006105eb85856108df565b815260200190815260200160002060009054906101000a900460ff16905092915050565b60008282604051602001610624929190610cfd565b60405160208183030381529060405280519060200120905092915050565b60008082905060005b855181101561071057600086828151811061068f577f4e487b7100000000000000000000000000000000000000000000000000000000600052603260045260246000fd5b602002602001015190508083116106d05782816040516020016106b3929190610d29565b6040516020818303038152906040528051906020012092506106fc565b80836040516020016106e3929190610d29565b6040516020818303038152906040528051906020012092505b5080806107089061103f565b91505061064b565b508381149150509392505050565b60016005600061072e85856108df565b815260200190815260200160002060006101000a81548160ff0219169083151502179055505050565b60006107638383610912565b90508061089e57600260009054906101000a900473ffffffffffffffffffffffffffffffffffffffff1673ffffffffffffffffffffffffffffffffffffffff1663d0e30db0836040518263ffffffff1660e01b81526004016000604051808303818588803b1580156107d457600080fd5b505af11580156107e8573d6000803e3d6000fd5b5050505050600260009054906101000a900473ffffffffffffffffffffffffffffffffffffffff1673ffffffffffffffffffffffffffffffffffffffff1663a9059cbb84846040518363ffffffff1660e01b815260040161084a929190610d96565b602060405180830381600087803b15801561086457600080fd5b505af1158015610878573d6000803e3d6000fd5b505050506040513d601f19601f8201168201806040525081019061089c9190610a83565b505b7fdbd5389f52533f4cbd998e752125a5a4eaa0b813b399ad15f775ec0e8438620d8383836040516108d193929190610dbf565b60405180910390a192915050565b600082826040516020016108f4929190610d6a565b60405160208183030381529060405280519060200120905092915050565b6000808373ffffffffffffffffffffffffffffffffffffffff16836175309060405161093d90610d55565b600060405180830381858888f193505050503d806000811461097b576040519150601f19603f3d011682016040523d82523d6000602084013e610980565b606091505b505090508091505092915050565b60008135905061099d816111f8565b92915050565b60008083601f8401126109b557600080fd5b8235905067ffffffffffffffff8111156109ce57600080fd5b6020830191508360208202830111156109e657600080fd5b9250929050565b6000815190506109fc8161120f565b92915050565b600081359050610a1181611226565b92915050565b60008060008060608587031215610a2d57600080fd5b6000610a3b8782880161098e565b9450506020610a4c87828801610a02565b935050604085013567ffffffffffffffff811115610a6957600080fd5b610a75878288016109a3565b925092505092959194509250565b600060208284031215610a9557600080fd5b6000610aa3848285016109ed565b91505092915050565b600060208284031215610abe57600080fd5b6000610acc84828501610a02565b91505092915050565b60008060408385031215610ae857600080fd5b6000610af685828601610a02565b9250506020610b078582860161098e565b9150509250929050565b600080600080600060808688031215610b2957600080fd5b6000610b3788828901610a02565b9550506020610b488882890161098e565b9450506040610b5988828901610a02565b935050606086013567ffffffffffffffff811115610b7657600080fd5b610b82888289016109a3565b92509250509295509295909350565b60008060408385031215610ba457600080fd5b6000610bb285828601610a02565b9250506020610bc385828601610a02565b9150509250929050565b610bd681610fed565b82525050565b610bed610be882610fed565b611088565b82525050565b610bfc81610fff565b82525050565b610c0b8161100b565b82525050565b610c22610c1d8261100b565b61109a565b82525050565b6000610c35602883610efb565b9150610c408261112b565b604082019050919050565b6000610c58601e83610efb565b9150610c638261117a565b602082019050919050565b6000610c7b600083610ef0565b9150610c86826111a3565b600082019050919050565b6000610c9e600d83610efb565b9150610ca9826111a6565b602082019050919050565b6000610cc1602083610efb565b9150610ccc826111cf565b602082019050919050565b610ce081611035565b82525050565b610cf7610cf282611035565b6110b6565b82525050565b6000610d098285610bdc565b601482019150610d198284610ce6565b6020820191508190509392505050565b6000610d358285610c11565b602082019150610d458284610c11565b6020820191508190509392505050565b6000610d6082610c6e565b9150819050919050565b6000610d768285610ce6565b602082019150610d868284610bdc565b6014820191508190509392505050565b6000604082019050610dab6000830185610bcd565b610db86020830184610cd7565b9392505050565b6000606082019050610dd46000830186610bcd565b610de16020830185610cd7565b610dee6040830184610bf3565b949350505050565b6000602082019050610e0b6000830184610bf3565b92915050565b6000602082019050610e266000830184610c02565b92915050565b60006020820190508181036000830152610e4581610c28565b9050919050565b60006020820190508181036000830152610e6581610c4b565b9050919050565b60006020820190508181036000830152610e8581610c91565b9050919050565b60006020820190508181036000830152610ea581610cb4565b9050919050565b6000602082019050610ec16000830184610cd7565b92915050565b6000604082019050610edc6000830185610cd7565b610ee96020830184610cd7565b9392505050565b600081905092915050565b600082825260208201905092915050565b6000610f1782611035565b9150610f2283611035565b9250827fffffffffffffffffffffffffffffffffffffffffffffffffffffffffffffffff03821115610f5757610f566110c0565b5b828201905092915050565b6000610f6d82611035565b9150610f7883611035565b925082610f8857610f876110ef565b5b828204905092915050565b6000610f9e82611035565b9150610fa983611035565b9250817fffffffffffffffffffffffffffffffffffffffffffffffffffffffffffffffff0483118215151615610fe257610fe16110c0565b5b828202905092915050565b6000610ff882611015565b9050919050565b60008115159050919050565b6000819050919050565b600073ffffffffffffffffffffffffffffffffffffffff82169050919050565b6000819050919050565b600061104a82611035565b91507fffffffffffffffffffffffffffffffffffffffffffffffffffffffffffffffff82141561107d5761107c6110c0565b5b600182019050919050565b6000611093826110a4565b9050919050565b6000819050919050565b60006110af8261111e565b9050919050565b6000819050919050565b7f4e487b7100000000000000000000000000000000000000000000000000000000600052601160045260246000fd5b7f4e487b7100000000000000000000000000000000000000000000000000000000600052601260045260246000fd5b60008160601b9050919050565b7f4163636f756e7420616c726561647920636c61696d656420746865206769766560008201527f6e2077696e646f77000000000000000000000000000000000000000000000000602082015250565b7f4e6f206164646974696f6e616c2066756e647320666f722077696e646f770000600082015250565b50565b7f496e76616c69642070726f6f6600000000000000000000000000000000000000600082015250565b7f63616e6e6f7420636c61696d20666f722061206675747572652077696e646f77600082015250565b61120181610fed565b811461120c57600080fd5b50565b61121881610fff565b811461122357600080fd5b50565b61122f81611035565b811461123a57600080fd5b5056fea264697066735822122044ac0887b0b58363e18775a8462256f1eb27656ae172dbe3431c0437bed0548364736f6c63430008040033",
  "linkReferences": {},
  "deployedLinkReferences": {}
}