{
  "_format": "hh-sol-artifact-1",
  "contractName": "Souls",
  "sourceName": "contracts/Souls.sol",
  "abi": [
    {
      "inputs": [
        {
          "internalType": "string",
          "name": "name_",
          "type": "string"
        },
        {
          "internalType": "string",
          "name": "symbol_",
          "type": "string"
        },
        {
          "internalType": "address payable",
          "name": "writer_",
          "type": "address"
        },
        {
          "internalType": "uint256",
          "name": "startDate_",
          "type": "uint256"
        },
        {
          "internalType": "uint256",
          "name": "endDate_",
          "type": "uint256"
        },
        {
          "internalType": "address",
          "name": "certificates_",
          "type": "address"
        }
      ],
      "stateMutability": "nonpayable",
      "type": "constructor"
    },
    {
      "anonymous": false,
      "inputs": [
        {
          "indexed": true,
          "internalType": "address",
          "name": "owner",
          "type": "address"
        },
        {
          "indexed": true,
          "internalType": "address",
          "name": "approved",
          "type": "address"
        },
        {
          "indexed": true,
          "internalType": "uint256",
          "name": "tokenId",
          "type": "uint256"
        }
      ],
      "name": "Approval",
      "type": "event"
    },
    {
      "anonymous": false,
      "inputs": [
        {
          "indexed": true,
          "internalType": "address",
          "name": "owner",
          "type": "address"
        },
        {
          "indexed": true,
          "internalType": "address",
          "name": "operator",
          "type": "address"
        },
        {
          "indexed": false,
          "internalType": "bool",
          "name": "approved",
          "type": "bool"
        }
      ],
      "name": "ApprovalForAll",
      "type": "event"
    },
    {
      "anonymous": false,
      "inputs": [
        {
          "indexed": true,
          "internalType": "address",
          "name": "claimer",
          "type": "address"
        },
        {
          "indexed": true,
          "internalType": "uint256",
          "name": "tokenId",
          "type": "uint256"
        }
      ],
      "name": "Claim",
      "type": "event"
    },
    {
      "anonymous": false,
      "inputs": [
        {
          "indexed": true,
          "internalType": "address",
          "name": "from",
          "type": "address"
        },
        {
          "indexed": true,
          "internalType": "address",
          "name": "to",
          "type": "address"
        },
        {
          "indexed": true,
          "internalType": "uint256",
          "name": "tokenId",
          "type": "uint256"
        }
      ],
      "name": "Transfer",
      "type": "event"
    },
    {
      "inputs": [],
      "name": "anchorCertificates",
      "outputs": [
        {
          "internalType": "contract ERC721",
          "name": "",
          "type": "address"
        }
      ],
      "stateMutability": "view",
      "type": "function"
    },
    {
      "inputs": [
        {
          "internalType": "address",
          "name": "to",
          "type": "address"
        },
        {
          "internalType": "uint256",
          "name": "tokenId",
          "type": "uint256"
        }
      ],
      "name": "approve",
      "outputs": [],
      "stateMutability": "nonpayable",
      "type": "function"
    },
    {
      "inputs": [
        {
          "internalType": "address",
          "name": "owner",
          "type": "address"
        }
      ],
      "name": "balanceOf",
      "outputs": [
        {
          "internalType": "uint256",
          "name": "",
          "type": "uint256"
        }
      ],
      "stateMutability": "view",
      "type": "function"
    },
    {
      "inputs": [],
      "name": "buyableSoulSupply",
      "outputs": [
        {
          "internalType": "uint256",
          "name": "",
          "type": "uint256"
        }
      ],
      "stateMutability": "view",
      "type": "function"
    },
    {
      "inputs": [
        {
          "internalType": "uint256",
          "name": "ACID",
          "type": "uint256"
        }
      ],
      "name": "claimSoul",
      "outputs": [],
      "stateMutability": "nonpayable",
      "type": "function"
    },
    {
      "inputs": [
        {
          "internalType": "uint256",
          "name": "",
          "type": "uint256"
        }
      ],
      "name": "claimedACIDs",
      "outputs": [
        {
          "internalType": "bool",
          "name": "",
          "type": "bool"
        }
      ],
      "stateMutability": "view",
      "type": "function"
    },
    {
      "inputs": [],
      "name": "descriptor",
      "outputs": [
        {
          "internalType": "contract SoulsDescriptor",
          "name": "",
          "type": "address"
        }
      ],
      "stateMutability": "view",
      "type": "function"
    },
    {
      "inputs": [],
      "name": "endDate",
      "outputs": [
        {
          "internalType": "uint256",
          "name": "",
          "type": "uint256"
        }
      ],
      "stateMutability": "view",
      "type": "function"
    },
    {
      "inputs": [
        {
          "internalType": "uint256",
          "name": "tokenId",
          "type": "uint256"
        }
      ],
      "name": "generateBase64Image",
      "outputs": [
        {
          "internalType": "string",
          "name": "",
          "type": "string"
        }
      ],
      "stateMutability": "view",
      "type": "function"
    },
    {
      "inputs": [
        {
          "internalType": "uint256",
          "name": "tokenId",
          "type": "uint256"
        }
      ],
      "name": "generateImage",
      "outputs": [
        {
          "internalType": "string",
          "name": "",
          "type": "string"
        }
      ],
      "stateMutability": "view",
      "type": "function"
    },
    {
      "inputs": [
        {
          "internalType": "uint256",
          "name": "tokenId",
          "type": "uint256"
        }
      ],
      "name": "generateTraits",
      "outputs": [
        {
          "internalType": "string",
          "name": "",
          "type": "string"
        }
      ],
      "stateMutability": "view",
      "type": "function"
    },
    {
      "inputs": [
        {
          "internalType": "uint256",
          "name": "tokenId",
          "type": "uint256"
        }
      ],
      "name": "getApproved",
      "outputs": [
        {
          "internalType": "address",
          "name": "",
          "type": "address"
        }
      ],
      "stateMutability": "view",
      "type": "function"
    },
    {
      "inputs": [
        {
          "internalType": "address",
          "name": "owner",
          "type": "address"
        },
        {
          "internalType": "address",
          "name": "operator",
          "type": "address"
        }
      ],
      "name": "isApprovedForAll",
      "outputs": [
        {
          "internalType": "bool",
          "name": "",
          "type": "bool"
        }
      ],
      "stateMutability": "view",
      "type": "function"
    },
    {
      "inputs": [],
      "name": "mintSoul",
      "outputs": [],
      "stateMutability": "payable",
      "type": "function"
    },
    {
      "inputs": [],
      "name": "name",
      "outputs": [
        {
          "internalType": "string",
          "name": "",
          "type": "string"
        }
      ],
      "stateMutability": "view",
      "type": "function"
    },
    {
      "inputs": [],
      "name": "newlyMinted",
      "outputs": [
        {
          "internalType": "uint256",
          "name": "",
          "type": "uint256"
        }
      ],
      "stateMutability": "view",
      "type": "function"
    },
    {
      "inputs": [],
      "name": "owner",
      "outputs": [
        {
          "internalType": "address",
          "name": "",
          "type": "address"
        }
      ],
      "stateMutability": "view",
      "type": "function"
    },
    {
      "inputs": [
        {
          "internalType": "uint256",
          "name": "tokenId",
          "type": "uint256"
        }
      ],
      "name": "ownerOf",
      "outputs": [
        {
          "internalType": "address",
          "name": "",
          "type": "address"
        }
      ],
      "stateMutability": "view",
      "type": "function"
    },
    {
      "inputs": [
        {
          "internalType": "address",
          "name": "from",
          "type": "address"
        },
        {
          "internalType": "address",
          "name": "to",
          "type": "address"
        },
        {
          "internalType": "uint256",
          "name": "tokenId",
          "type": "uint256"
        }
      ],
      "name": "safeTransferFrom",
      "outputs": [],
      "stateMutability": "nonpayable",
      "type": "function"
    },
    {
      "inputs": [
        {
          "internalType": "address",
          "name": "from",
          "type": "address"
        },
        {
          "internalType": "address",
          "name": "to",
          "type": "address"
        },
        {
          "internalType": "uint256",
          "name": "tokenId",
          "type": "uint256"
        },
        {
          "internalType": "bytes",
          "name": "_data",
          "type": "bytes"
        }
      ],
      "name": "safeTransferFrom",
      "outputs": [],
      "stateMutability": "nonpayable",
      "type": "function"
    },
    {
      "inputs": [
        {
          "internalType": "address",
          "name": "operator",
          "type": "address"
        },
        {
          "internalType": "bool",
          "name": "approved",
          "type": "bool"
        }
      ],
      "name": "setApprovalForAll",
      "outputs": [],
      "stateMutability": "nonpayable",
      "type": "function"
    },
    {
      "inputs": [
        {
          "internalType": "uint256",
          "name": "",
          "type": "uint256"
        }
      ],
      "name": "soulsType",
      "outputs": [
        {
          "internalType": "bool",
          "name": "",
          "type": "bool"
        }
      ],
      "stateMutability": "view",
      "type": "function"
    },
    {
      "inputs": [],
      "name": "startDate",
      "outputs": [
        {
          "internalType": "uint256",
          "name": "",
          "type": "uint256"
        }
      ],
      "stateMutability": "view",
      "type": "function"
    },
    {
      "inputs": [
        {
          "internalType": "bytes4",
          "name": "interfaceId",
          "type": "bytes4"
        }
      ],
      "name": "supportsInterface",
      "outputs": [
        {
          "internalType": "bool",
          "name": "",
          "type": "bool"
        }
      ],
      "stateMutability": "view",
      "type": "function"
    },
    {
      "inputs": [],
      "name": "symbol",
      "outputs": [
        {
          "internalType": "string",
          "name": "",
          "type": "string"
        }
      ],
      "stateMutability": "view",
      "type": "function"
    },
    {
      "inputs": [
        {
          "internalType": "uint256",
          "name": "tokenId",
          "type": "uint256"
        }
      ],
      "name": "tokenURI",
      "outputs": [
        {
          "internalType": "string",
          "name": "",
          "type": "string"
        }
      ],
      "stateMutability": "view",
      "type": "function"
    },
    {
      "inputs": [
        {
          "internalType": "address",
          "name": "from",
          "type": "address"
        },
        {
          "internalType": "address",
          "name": "to",
          "type": "address"
        },
        {
          "internalType": "uint256",
          "name": "tokenId",
          "type": "uint256"
        }
      ],
      "name": "transferFrom",
      "outputs": [],
      "stateMutability": "nonpayable",
      "type": "function"
    },
    {
      "inputs": [],
      "name": "un_frontier",
      "outputs": [
        {
          "internalType": "address payable",
          "name": "",
          "type": "address"
        }
      ],
      "stateMutability": "view",
      "type": "function"
    },
    {
      "inputs": [],
      "name": "withdrawETH",
      "outputs": [],
      "stateMutability": "nonpayable",
      "type": "function"
    },
    {
      "inputs": [],
      "name": "writer",
      "outputs": [
        {
          "internalType": "address payable",
          "name": "",
          "type": "address"
        }
      ],
      "stateMutability": "view",
      "type": "function"
    }
  ],
  "bytecode": "0x608060405273af69610ea9ddc95883f97a6a3171d52165b69b03600660006101000a81548173ffffffffffffffffffffffffffffffffffffffff021916908373ffffffffffffffffffffffffffffffffffffffff1602179055503480156200006657600080fd5b506040516200a1b13803806200a1b183398181016040528101906200008c9190620006ee565b85858160009080519060200190620000a692919062000579565b508060019080519060200190620000bf92919062000579565b50505083600860006101000a81548173ffffffffffffffffffffffffffffffffffffffff021916908373ffffffffffffffffffffffffffffffffffffffff16021790555073af69610ea9ddc95883f97a6a3171d52165b69b03600760006101000a81548173ffffffffffffffffffffffffffffffffffffffff021916908373ffffffffffffffffffffffffffffffffffffffff16021790555082600b8190555081600c8190555060405162000174906200060a565b604051809103906000f08015801562000191573d6000803e3d6000fd5b50600e60006101000a81548173ffffffffffffffffffffffffffffffffffffffff021916908373ffffffffffffffffffffffffffffffffffffffff16021790555080600f60006101000a81548173ffffffffffffffffffffffffffffffffffffffff021916908373ffffffffffffffffffffffffffffffffffffffff1602179055506200023a6000731c9468d649e548751011250107c2695994910200620002bb60201b60201c565b62000261600073af69610ea9ddc95883f97a6a3171d52165b69b03620002bb60201b60201c565b62000288600173651d94725b7537a008d23a2353dcd23cb6a53e47620002bb60201b60201c565b620002af6001739f3e324b12db18797e62df5c6642ff369b64be1d620002bb60201b60201c565b50505050505062000bec565b60004282604051602001620002d29291906200083a565b6040516020818303038152906040528051906020012060001c905082600d600083815260200190815260200160002060006101000a81548160ff02191690831515021790555080600a819055506200033682826200033b60201b620018a61760201c565b505050565b600073ffffffffffffffffffffffffffffffffffffffff168273ffffffffffffffffffffffffffffffffffffffff161415620003ae576040517f08c379a0000000000000000000000000000000000000000000000000000000008152600401620003a5906200088c565b60405180910390fd5b620003bf816200050d60201b60201c565b1562000402576040517f08c379a0000000000000000000000000000000000000000000000000000000008152600401620003f9906200086a565b60405180910390fd5b6001600360008473ffffffffffffffffffffffffffffffffffffffff1673ffffffffffffffffffffffffffffffffffffffff16815260200190815260200160002060008282546200045491906200091e565b92505081905550816002600083815260200190815260200160002060006101000a81548173ffffffffffffffffffffffffffffffffffffffff021916908373ffffffffffffffffffffffffffffffffffffffff160217905550808273ffffffffffffffffffffffffffffffffffffffff16600073ffffffffffffffffffffffffffffffffffffffff167fddf252ad1be2c89b69c2b068fc378daa952ba7f163c4a11628f55a4df523b3ef60405160405180910390a45050565b60008073ffffffffffffffffffffffffffffffffffffffff166002600084815260200190815260200160002060009054906101000a900473ffffffffffffffffffffffffffffffffffffffff1673ffffffffffffffffffffffffffffffffffffffff1614159050919050565b828054620005879062000a03565b90600052602060002090601f016020900481019282620005ab5760008555620005f7565b82601f10620005c657805160ff1916838001178555620005f7565b82800160010185558215620005f7579182015b82811115620005f6578251825591602001919060010190620005d9565b5b50905062000606919062000618565b5090565b6158ff80620048b283390190565b5b808211156200063357600081600090555060010162000619565b5090565b60006200064e6200064884620008d7565b620008ae565b9050828152602081018484840111156200066757600080fd5b62000674848285620009cd565b509392505050565b6000815190506200068d8162000b9e565b92915050565b600081519050620006a48162000bb8565b92915050565b600082601f830112620006bc57600080fd5b8151620006ce84826020860162000637565b91505092915050565b600081519050620006e88162000bd2565b92915050565b60008060008060008060c087890312156200070857600080fd5b600087015167ffffffffffffffff8111156200072357600080fd5b6200073189828a01620006aa565b965050602087015167ffffffffffffffff8111156200074f57600080fd5b6200075d89828a01620006aa565b95505060406200077089828a0162000693565b94505060606200078389828a01620006d7565b93505060806200079689828a01620006d7565b92505060a0620007a989828a016200067c565b9150509295509295509295565b620007cb620007c5826200097b565b62000a6f565b82525050565b6000620007e0601c836200090d565b9150620007ed8262000b4c565b602082019050919050565b6000620008076020836200090d565b9150620008148262000b75565b602082019050919050565b620008346200082e82620009c3565b62000a97565b82525050565b60006200084882856200081f565b6020820191506200085a8284620007b6565b6014820191508190509392505050565b600060208201905081810360008301526200088581620007d1565b9050919050565b60006020820190508181036000830152620008a781620007f8565b9050919050565b6000620008ba620008cd565b9050620008c8828262000a39565b919050565b6000604051905090565b600067ffffffffffffffff821115620008f557620008f462000aff565b5b620009008262000b2e565b9050602081019050919050565b600082825260208201905092915050565b60006200092b82620009c3565b91506200093883620009c3565b9250827fffffffffffffffffffffffffffffffffffffffffffffffffffffffffffffffff0382111562000970576200096f62000aa1565b5b828201905092915050565b60006200098882620009a3565b9050919050565b60006200099c82620009a3565b9050919050565b600073ffffffffffffffffffffffffffffffffffffffff82169050919050565b6000819050919050565b60005b83811015620009ed578082015181840152602081019050620009d0565b83811115620009fd576000848401525b50505050565b6000600282049050600182168062000a1c57607f821691505b6020821081141562000a335762000a3262000ad0565b5b50919050565b62000a448262000b2e565b810181811067ffffffffffffffff8211171562000a665762000a6562000aff565b5b80604052505050565b600062000a7c8262000a83565b9050919050565b600062000a908262000b3f565b9050919050565b6000819050919050565b7f4e487b7100000000000000000000000000000000000000000000000000000000600052601160045260246000fd5b7f4e487b7100000000000000000000000000000000000000000000000000000000600052602260045260246000fd5b7f4e487b7100000000000000000000000000000000000000000000000000000000600052604160045260246000fd5b6000601f19601f8301169050919050565b60008160601b9050919050565b7f4552433732313a20746f6b656e20616c7265616479206d696e74656400000000600082015250565b7f4552433732313a206d696e7420746f20746865207a65726f2061646472657373600082015250565b62000ba9816200097b565b811462000bb557600080fd5b50565b62000bc3816200098f565b811462000bcf57600080fd5b50565b62000bdd81620009c3565b811462000be957600080fd5b50565b613cb68062000bfc6000396000f3fe6080604052600436106101cd5760003560e01c806370a08231116100f7578063b88d4fde11610095578063dd74533b11610064578063dd74533b146106c6578063e086e5ec14610703578063e39e867d1461071a578063e985e9c514610724576101cd565b8063b88d4fde1461060a578063c24a0f8b14610633578063c87b56dd1461065e578063d638bead1461069b576101cd565b80638da5cb5b116100d15780638da5cb5b1461054e57806395d89b4114610579578063a22cb465146105a4578063a48b3b8f146105cd576101cd565b806370a08231146104a95780637687794c146104e657806379b92f2714610511576101cd565b8063303e74df1161016f5780634b44d8121161013e5780634b44d812146103d95780635c642417146104165780636352211e1461044157806365ec57951461047e576101cd565b8063303e74df1461031d578063324165021461034857806342842e0e14610385578063453a2abc146103ae576101cd565b8063095ea7b3116101ab578063095ea7b3146102775780630b97bc86146102a057806317dd4dcd146102cb57806323b872dd146102f4576101cd565b806301ffc9a7146101d257806306fdde031461020f578063081812fc1461023a575b600080fd5b3480156101de57600080fd5b506101f960048036038101906101f4919061265f565b610761565b6040516102069190612d6a565b60405180910390f35b34801561021b57600080fd5b50610224610843565b6040516102319190612dbb565b60405180910390f35b34801561024657600080fd5b50610261600480360381019061025c91906126f2565b6108d5565b60405161026e9190612ce8565b60405180910390f35b34801561028357600080fd5b5061029e60048036038101906102999190612623565b61095a565b005b3480156102ac57600080fd5b506102b5610a64565b6040516102c291906130ad565b60405180910390f35b3480156102d757600080fd5b506102f260048036038101906102ed91906126f2565b610a6a565b005b34801561030057600080fd5b5061031b6004803603810190610316919061251d565b610c67565b005b34801561032957600080fd5b50610332610cc0565b60405161033f9190612da0565b60405180910390f35b34801561035457600080fd5b5061036f600480360381019061036a91906126f2565b610ce6565b60405161037c9190612d6a565b60405180910390f35b34801561039157600080fd5b506103ac60048036038101906103a7919061251d565b610d06565b005b3480156103ba57600080fd5b506103c3610d26565b6040516103d09190612d03565b60405180910390f35b3480156103e557600080fd5b5061040060048036038101906103fb91906126f2565b610d4c565b60405161040d9190612dbb565b60405180910390f35b34801561042257600080fd5b5061042b610e27565b6040516104389190612d03565b60405180910390f35b34801561044d57600080fd5b50610468600480360381019061046391906126f2565b610e4d565b6040516104759190612ce8565b60405180910390f35b34801561048a57600080fd5b50610493610eff565b6040516104a091906130ad565b60405180910390f35b3480156104b557600080fd5b506104d060048036038101906104cb919061248f565b610f05565b6040516104dd91906130ad565b60405180910390f35b3480156104f257600080fd5b506104fb610fbd565b60405161050891906130ad565b60405180910390f35b34801561051d57600080fd5b50610538600480360381019061053391906126f2565b610fc3565b6040516105459190612dbb565b60405180910390f35b34801561055a57600080fd5b5061056361109e565b6040516105709190612ce8565b60405180910390f35b34801561058557600080fd5b5061058e6110c4565b60405161059b9190612dbb565b60405180910390f35b3480156105b057600080fd5b506105cb60048036038101906105c691906125e7565b611156565b005b3480156105d957600080fd5b506105f460048036038101906105ef91906126f2565b6112c2565b6040516106019190612dbb565b60405180910390f35b34801561061657600080fd5b50610631600480360381019061062c919061256c565b6112e2565b005b34801561063f57600080fd5b5061064861133d565b60405161065591906130ad565b60405180910390f35b34801561066a57600080fd5b50610685600480360381019061068091906126f2565b611343565b6040516106929190612dbb565b60405180910390f35b3480156106a757600080fd5b506106b0611573565b6040516106bd9190612d85565b60405180910390f35b3480156106d257600080fd5b506106ed60048036038101906106e891906126f2565b611599565b6040516106fa9190612d6a565b60405180910390f35b34801561070f57600080fd5b506107186115b9565b005b6107226116b4565b005b34801561073057600080fd5b5061074b600480360381019061074691906124e1565b611812565b6040516107589190612d6a565b60405180910390f35b60007f80ac58cd000000000000000000000000000000000000000000000000000000007bffffffffffffffffffffffffffffffffffffffffffffffffffffffff1916827bffffffffffffffffffffffffffffffffffffffffffffffffffffffff1916148061082c57507f5b5e139f000000000000000000000000000000000000000000000000000000007bffffffffffffffffffffffffffffffffffffffffffffffffffffffff1916827bffffffffffffffffffffffffffffffffffffffffffffffffffffffff1916145b8061083c575061083b82611a68565b5b9050919050565b606060008054610852906133e0565b80601f016020809104026020016040519081016040528092919081815260200182805461087e906133e0565b80156108cb5780601f106108a0576101008083540402835291602001916108cb565b820191906000526020600020905b8154815290600101906020018083116108ae57829003601f168201915b5050505050905090565b60006108e082611ad2565b61091f576040517f08c379a000000000000000000000000000000000000000000000000000000000815260040161091690612fcd565b60405180910390fd5b6004600083815260200190815260200160002060009054906101000a900473ffffffffffffffffffffffffffffffffffffffff169050919050565b600061096582610e4d565b90508073ffffffffffffffffffffffffffffffffffffffff168373ffffffffffffffffffffffffffffffffffffffff1614156109d6576040517f08c379a00000000000000000000000000000000000000000000000000000000081526004016109cd9061302d565b60405180910390fd5b8073ffffffffffffffffffffffffffffffffffffffff163373ffffffffffffffffffffffffffffffffffffffff161480610a165750610a158133611812565b5b610a55576040517f08c379a0000000000000000000000000000000000000000000000000000000008152600401610a4c90612f2d565b60405180910390fd5b610a5f8383611b3e565b505050565b600b5481565b600015156010600083815260200190815260200160002060009054906101000a900460ff16151514610ad1576040517f08c379a0000000000000000000000000000000000000000000000000000000008152600401610ac890612e2d565b60405180910390fd5b3373ffffffffffffffffffffffffffffffffffffffff16600f60009054906101000a900473ffffffffffffffffffffffffffffffffffffffff1673ffffffffffffffffffffffffffffffffffffffff16636352211e836040518263ffffffff1660e01b8152600401610b4391906130ad565b60206040518083038186803b158015610b5b57600080fd5b505afa158015610b6f573d6000803e3d6000fd5b505050506040513d601f19601f82011682018060405250810190610b9391906124b8565b73ffffffffffffffffffffffffffffffffffffffff1614610be9576040517f08c379a0000000000000000000000000000000000000000000000000000000008152600401610be090612f8d565b60405180910390fd5b60016010600083815260200190815260200160002060006101000a81548160ff021916908315150217905550610c20600133611bf7565b803373ffffffffffffffffffffffffffffffffffffffff167f47cee97cb7acd717b3c0aa1435d004cd5b3c8c57d70dbceb4e4458bbd60e39d460405160405180910390a350565b610c713382611c68565b610cb0576040517f08c379a0000000000000000000000000000000000000000000000000000000008152600401610ca79061306d565b60405180910390fd5b610cbb838383611d46565b505050565b600e60009054906101000a900473ffffffffffffffffffffffffffffffffffffffff1681565b600d6020528060005260406000206000915054906101000a900460ff1681565b610d21838383604051806020016040528060008152506112e2565b505050565b600860009054906101000a900473ffffffffffffffffffffffffffffffffffffffff1681565b6060600e60009054906101000a900473ffffffffffffffffffffffffffffffffffffffff1673ffffffffffffffffffffffffffffffffffffffff1663effaaf6a83600d600086815260200190815260200160002060009054906101000a900460ff166040518363ffffffff1660e01b8152600401610dcb9291906130c8565b60006040518083038186803b158015610de357600080fd5b505afa158015610df7573d6000803e3d6000fd5b505050506040513d6000823e3d601f19601f82011682018060405250810190610e2091906126b1565b9050919050565b600760009054906101000a900473ffffffffffffffffffffffffffffffffffffffff1681565b6000806002600084815260200190815260200160002060009054906101000a900473ffffffffffffffffffffffffffffffffffffffff169050600073ffffffffffffffffffffffffffffffffffffffff168173ffffffffffffffffffffffffffffffffffffffff161415610ef6576040517f08c379a0000000000000000000000000000000000000000000000000000000008152600401610eed90612f6d565b60405180910390fd5b80915050919050565b60095481565b60008073ffffffffffffffffffffffffffffffffffffffff168273ffffffffffffffffffffffffffffffffffffffff161415610f76576040517f08c379a0000000000000000000000000000000000000000000000000000000008152600401610f6d90612f4d565b60405180910390fd5b600360008373ffffffffffffffffffffffffffffffffffffffff1673ffffffffffffffffffffffffffffffffffffffff168152602001908152602001600020549050919050565b600a5481565b6060600e60009054906101000a900473ffffffffffffffffffffffffffffffffffffffff1673ffffffffffffffffffffffffffffffffffffffff166337ee03ec83600d600086815260200190815260200160002060009054906101000a900460ff166040518363ffffffff1660e01b81526004016110429291906130c8565b60006040518083038186803b15801561105a57600080fd5b505afa15801561106e573d6000803e3d6000fd5b505050506040513d6000823e3d601f19601f8201168201806040525081019061109791906126b1565b9050919050565b600660009054906101000a900473ffffffffffffffffffffffffffffffffffffffff1681565b6060600180546110d3906133e0565b80601f01602080910402602001604051908101604052809291908181526020018280546110ff906133e0565b801561114c5780601f106111215761010080835404028352916020019161114c565b820191906000526020600020905b81548152906001019060200180831161112f57829003601f168201915b5050505050905090565b3373ffffffffffffffffffffffffffffffffffffffff168273ffffffffffffffffffffffffffffffffffffffff1614156111c5576040517f08c379a00000000000000000000000000000000000000000000000000000000081526004016111bc90612e8d565b60405180910390fd5b80600560003373ffffffffffffffffffffffffffffffffffffffff1673ffffffffffffffffffffffffffffffffffffffff16815260200190815260200160002060008473ffffffffffffffffffffffffffffffffffffffff1673ffffffffffffffffffffffffffffffffffffffff16815260200190815260200160002060006101000a81548160ff0219169083151502179055508173ffffffffffffffffffffffffffffffffffffffff163373ffffffffffffffffffffffffffffffffffffffff167f17307eab39ab6107e8899845ad3d59bd9653f200f220920489ca2b5937696c31836040516112b69190612d6a565b60405180910390a35050565b606060006112cf83610d4c565b90506112da81611f97565b915050919050565b6112ec3383611c68565b61132b576040517f08c379a00000000000000000000000000000000000000000000000000000000081526004016113229061306d565b60405180910390fd5b61133784848484612142565b50505050565b600c5481565b606061134e82611ad2565b61138d576040517f08c379a00000000000000000000000000000000000000000000000000000000081526004016113849061300d565b60405180910390fd5b60006040518060400160405280600881526020017f536b657463686564000000000000000000000000000000000000000000000000815250905060011515600d600085815260200190815260200160002060009054906101000a900460ff161515141561142d576040518060400160405280600d81526020017f46756c6c79205061696e7465640000000000000000000000000000000000000081525090505b6000600e60009054906101000a900473ffffffffffffffffffffffffffffffffffffffff1673ffffffffffffffffffffffffffffffffffffffff1663c94123f083866040518363ffffffff1660e01b815260040161148c929190612ddd565b60006040518083038186803b1580156114a457600080fd5b505afa1580156114b8573d6000803e3d6000fd5b505050506040513d6000823e3d601f19601f820116820180604052508101906114e191906126b1565b905060006040518060a00160405280607b8152602001613c06607b91399050600061150b866112c2565b9050600061151887610fc3565b9050611548848484846040516020016115349493929190612c1a565b604051602081830303815290604052611f97565b6040516020016115589190612c9a565b60405160208183030381529060405295505050505050919050565b600f60009054906101000a900473ffffffffffffffffffffffffffffffffffffffff1681565b60106020528060005260406000206000915054906101000a900460ff1681565b600760009054906101000a900473ffffffffffffffffffffffffffffffffffffffff1673ffffffffffffffffffffffffffffffffffffffff163373ffffffffffffffffffffffffffffffffffffffff1614611649576040517f08c379a000000000000000000000000000000000000000000000000000000000815260040161164090612eed565b60405180910390fd5b600760009054906101000a900473ffffffffffffffffffffffffffffffffffffffff1673ffffffffffffffffffffffffffffffffffffffff166108fc479081150290604051600060405180830381858888f193505050501580156116b1573d6000803e3d6000fd5b50565b600b5442116116f8576040517f08c379a00000000000000000000000000000000000000000000000000000000081526004016116ef9061304d565b60405180910390fd5b600c54421061173c576040517f08c379a000000000000000000000000000000000000000000000000000000000815260040161173390612ead565b60405180910390fd5b661e8da789118000341015611786576040517f08c379a000000000000000000000000000000000000000000000000000000000815260040161177d90612f0d565b60405180910390fd5b66ca8132b03280003410611804576001600960008282546117a791906131bb565b92505081905550606060095411156117f4576040517f08c379a00000000000000000000000000000000000000000000000000000000081526004016117eb9061308d565b60405180910390fd5b6117ff600133611bf7565b611810565b61180f600033611bf7565b5b565b6000600560008473ffffffffffffffffffffffffffffffffffffffff1673ffffffffffffffffffffffffffffffffffffffff16815260200190815260200160002060008373ffffffffffffffffffffffffffffffffffffffff1673ffffffffffffffffffffffffffffffffffffffff16815260200190815260200160002060009054906101000a900460ff16905092915050565b600073ffffffffffffffffffffffffffffffffffffffff168273ffffffffffffffffffffffffffffffffffffffff161415611916576040517f08c379a000000000000000000000000000000000000000000000000000000000815260040161190d90612fad565b60405180910390fd5b61191f81611ad2565b1561195f576040517f08c379a000000000000000000000000000000000000000000000000000000000815260040161195690612e4d565b60405180910390fd5b6001600360008473ffffffffffffffffffffffffffffffffffffffff1673ffffffffffffffffffffffffffffffffffffffff16815260200190815260200160002060008282546119af91906131bb565b92505081905550816002600083815260200190815260200160002060006101000a81548173ffffffffffffffffffffffffffffffffffffffff021916908373ffffffffffffffffffffffffffffffffffffffff160217905550808273ffffffffffffffffffffffffffffffffffffffff16600073ffffffffffffffffffffffffffffffffffffffff167fddf252ad1be2c89b69c2b068fc378daa952ba7f163c4a11628f55a4df523b3ef60405160405180910390a45050565b60007f01ffc9a7000000000000000000000000000000000000000000000000000000007bffffffffffffffffffffffffffffffffffffffffffffffffffffffff1916827bffffffffffffffffffffffffffffffffffffffffffffffffffffffff1916149050919050565b60008073ffffffffffffffffffffffffffffffffffffffff166002600084815260200190815260200160002060009054906101000a900473ffffffffffffffffffffffffffffffffffffffff1673ffffffffffffffffffffffffffffffffffffffff1614159050919050565b816004600083815260200190815260200160002060006101000a81548173ffffffffffffffffffffffffffffffffffffffff021916908373ffffffffffffffffffffffffffffffffffffffff160217905550808273ffffffffffffffffffffffffffffffffffffffff16611bb183610e4d565b73ffffffffffffffffffffffffffffffffffffffff167f8c5be1e5ebec7d5bd14f71427d1e84f3dd0314c0f7b2291e5b200ac8c7c3b92560405160405180910390a45050565b60004282604051602001611c0c929190612cbc565b6040516020818303038152906040528051906020012060001c905082600d600083815260200190815260200160002060006101000a81548160ff02191690831515021790555080600a81905550611c6382826118a6565b505050565b6000611c7382611ad2565b611cb2576040517f08c379a0000000000000000000000000000000000000000000000000000000008152600401611ca990612ecd565b60405180910390fd5b6000611cbd83610e4d565b90508073ffffffffffffffffffffffffffffffffffffffff168473ffffffffffffffffffffffffffffffffffffffff161480611d2c57508373ffffffffffffffffffffffffffffffffffffffff16611d14846108d5565b73ffffffffffffffffffffffffffffffffffffffff16145b80611d3d5750611d3c8185611812565b5b91505092915050565b8273ffffffffffffffffffffffffffffffffffffffff16611d6682610e4d565b73ffffffffffffffffffffffffffffffffffffffff1614611dbc576040517f08c379a0000000000000000000000000000000000000000000000000000000008152600401611db390612fed565b60405180910390fd5b600073ffffffffffffffffffffffffffffffffffffffff168273ffffffffffffffffffffffffffffffffffffffff161415611e2c576040517f08c379a0000000000000000000000000000000000000000000000000000000008152600401611e2390612e6d565b60405180910390fd5b611e37600082611b3e565b6001600360008573ffffffffffffffffffffffffffffffffffffffff1673ffffffffffffffffffffffffffffffffffffffff1681526020019081526020016000206000828254611e87919061329c565b925050819055506001600360008473ffffffffffffffffffffffffffffffffffffffff1673ffffffffffffffffffffffffffffffffffffffff1681526020019081526020016000206000828254611ede91906131bb565b92505081905550816002600083815260200190815260200160002060006101000a81548173ffffffffffffffffffffffffffffffffffffffff021916908373ffffffffffffffffffffffffffffffffffffffff160217905550808273ffffffffffffffffffffffffffffffffffffffff168473ffffffffffffffffffffffffffffffffffffffff167fddf252ad1be2c89b69c2b068fc378daa952ba7f163c4a11628f55a4df523b3ef60405160405180910390a4505050565b6060600082511415611fba5760405180602001604052806000815250905061213d565b6000604051806060016040528060408152602001613bc66040913990506000600360028551611fe991906131bb565b611ff39190613211565b6004611fff9190613242565b9050600060208261201091906131bb565b67ffffffffffffffff81111561204f577f4e487b7100000000000000000000000000000000000000000000000000000000600052604160045260246000fd5b6040519080825280601f01601f1916602001820160405280156120815781602001600182028036833780820191505090505b509050818152600183018586518101602084015b818310156120fc576003830192508251603f8160121c1685015160f81b8252600182019150603f81600c1c1685015160f81b8252600182019150603f8160061c1685015160f81b8252600182019150603f811685015160f81b825260018201915050612095565b600389510660018114612116576002811461212657612131565b613d3d60f01b6002830352612131565b603d60f81b60018303525b50505050508093505050505b919050565b61214d848484611d46565b6121598484848461219e565b612198576040517f08c379a000000000000000000000000000000000000000000000000000000000815260040161218f90612e0d565b60405180910390fd5b50505050565b60006121bf8473ffffffffffffffffffffffffffffffffffffffff1661232e565b15612321578373ffffffffffffffffffffffffffffffffffffffff1663150b7a02338786866040518563ffffffff1660e01b81526004016122039493929190612d1e565b602060405180830381600087803b15801561221d57600080fd5b505af192505050801561224e57506040513d601f19601f8201168201806040525081019061224b9190612688565b60015b6122d1573d806000811461227e576040519150601f19603f3d011682016040523d82523d6000602084013e612283565b606091505b506000815114156122c9576040517f08c379a00000000000000000000000000000000000000000000000000000000081526004016122c090612e0d565b60405180910390fd5b805181602001fd5b63150b7a0260e01b7bffffffffffffffffffffffffffffffffffffffffffffffffffffffff1916817bffffffffffffffffffffffffffffffffffffffffffffffffffffffff191614915050612326565b600190505b949350505050565b600080823b905060008111915050919050565b600061235461234f84613116565b6130f1565b90508281526020810184848401111561236c57600080fd5b61237784828561339e565b509392505050565b600061239261238d84613147565b6130f1565b9050828152602081018484840111156123aa57600080fd5b6123b58482856133ad565b509392505050565b6000813590506123cc81613b69565b92915050565b6000815190506123e181613b69565b92915050565b6000813590506123f681613b80565b92915050565b60008135905061240b81613b97565b92915050565b60008151905061242081613b97565b92915050565b600082601f83011261243757600080fd5b8135612447848260208601612341565b91505092915050565b600082601f83011261246157600080fd5b815161247184826020860161237f565b91505092915050565b60008135905061248981613bae565b92915050565b6000602082840312156124a157600080fd5b60006124af848285016123bd565b91505092915050565b6000602082840312156124ca57600080fd5b60006124d8848285016123d2565b91505092915050565b600080604083850312156124f457600080fd5b6000612502858286016123bd565b9250506020612513858286016123bd565b9150509250929050565b60008060006060848603121561253257600080fd5b6000612540868287016123bd565b9350506020612551868287016123bd565b92505060406125628682870161247a565b9150509250925092565b6000806000806080858703121561258257600080fd5b6000612590878288016123bd565b94505060206125a1878288016123bd565b93505060406125b28782880161247a565b925050606085013567ffffffffffffffff8111156125cf57600080fd5b6125db87828801612426565b91505092959194509250565b600080604083850312156125fa57600080fd5b6000612608858286016123bd565b9250506020612619858286016123e7565b9150509250929050565b6000806040838503121561263657600080fd5b6000612644858286016123bd565b92505060206126558582860161247a565b9150509250929050565b60006020828403121561267157600080fd5b600061267f848285016123fc565b91505092915050565b60006020828403121561269a57600080fd5b60006126a884828501612411565b91505092915050565b6000602082840312156126c357600080fd5b600082015167ffffffffffffffff8111156126dd57600080fd5b6126e984828501612450565b91505092915050565b60006020828403121561270457600080fd5b60006127128482850161247a565b91505092915050565b612724816132e2565b82525050565b612733816132d0565b82525050565b61274a612745826132d0565b613443565b82525050565b612759816132f4565b82525050565b600061276a82613178565b612774818561318e565b93506127848185602086016133ad565b61278d8161352d565b840191505092915050565b6127a181613356565b82525050565b6127b08161337a565b82525050565b60006127c182613183565b6127cb818561319f565b93506127db8185602086016133ad565b6127e48161352d565b840191505092915050565b60006127fa82613183565b61280481856131b0565b93506128148185602086016133ad565b80840191505092915050565b600061282d6009836131b0565b91506128388261354b565b600982019050919050565b600061285060328361319f565b915061285b82613574565b604082019050919050565b600061287360158361319f565b915061287e826135c3565b602082019050919050565b60006128966002836131b0565b91506128a1826135ec565b600282019050919050565b60006128b9601c8361319f565b91506128c482613615565b602082019050919050565b60006128dc60248361319f565b91506128e78261363e565b604082019050919050565b60006128ff60198361319f565b915061290a8261368d565b602082019050919050565b600061292260058361319f565b915061292d826136b6565b602082019050919050565b6000612945602c8361319f565b9150612950826136df565b604082019050919050565b6000612968600d8361319f565b91506129738261372e565b602082019050919050565b600061298b600f8361319f565b915061299682613757565b602082019050919050565b60006129ae60388361319f565b91506129b982613780565b604082019050919050565b60006129d1602a8361319f565b91506129dc826137cf565b604082019050919050565b60006129f460298361319f565b91506129ff8261381e565b604082019050919050565b6000612a1760198361319f565b9150612a228261386d565b602082019050919050565b6000612a3a60208361319f565b9150612a4582613896565b602082019050919050565b6000612a5d600d836131b0565b9150612a68826138bf565b600d82019050919050565b6000612a806001836131b0565b9150612a8b826138e8565b600182019050919050565b6000612aa3602c8361319f565b9150612aae82613911565b604082019050919050565b6000612ac66012836131b0565b9150612ad182613960565b601282019050919050565b6000612ae960298361319f565b9150612af482613989565b604082019050919050565b6000612b0c602f8361319f565b9150612b17826139d8565b604082019050919050565b6000612b2f60218361319f565b9150612b3a82613a27565b604082019050919050565b6000612b52601d836131b0565b9150612b5d82613a76565b601d82019050919050565b6000612b75600b8361319f565b9150612b8082613a9f565b602082019050919050565b6000612b9860318361319f565b9150612ba382613ac8565b604082019050919050565b6000612bbb600b8361319f565b9150612bc682613b17565b602082019050919050565b6000612bde601a836131b0565b9150612be982613b40565b601a82019050919050565b612bfd8161334c565b82525050565b612c14612c0f8261334c565b613467565b82525050565b6000612c2582612820565b9150612c3182876127ef565b9150612c3c82612ab9565b9150612c4882866127ef565b9150612c5382612a50565b9150612c5e82612bd1565b9150612c6a82856127ef565b9150612c7582612889565b9150612c8182846127ef565b9150612c8c82612a73565b915081905095945050505050565b6000612ca582612b45565b9150612cb182846127ef565b915081905092915050565b6000612cc88285612c03565b602082019150612cd88284612739565b6014820191508190509392505050565b6000602082019050612cfd600083018461272a565b92915050565b6000602082019050612d18600083018461271b565b92915050565b6000608082019050612d33600083018761272a565b612d40602083018661272a565b612d4d6040830185612bf4565b8181036060830152612d5f818461275f565b905095945050505050565b6000602082019050612d7f6000830184612750565b92915050565b6000602082019050612d9a6000830184612798565b92915050565b6000602082019050612db560008301846127a7565b92915050565b60006020820190508181036000830152612dd581846127b6565b905092915050565b60006040820190508181036000830152612df781856127b6565b9050612e066020830184612bf4565b9392505050565b60006020820190508181036000830152612e2681612843565b9050919050565b60006020820190508181036000830152612e4681612866565b9050919050565b60006020820190508181036000830152612e66816128ac565b9050919050565b60006020820190508181036000830152612e86816128cf565b9050919050565b60006020820190508181036000830152612ea6816128f2565b9050919050565b60006020820190508181036000830152612ec681612915565b9050919050565b60006020820190508181036000830152612ee681612938565b9050919050565b60006020820190508181036000830152612f068161295b565b9050919050565b60006020820190508181036000830152612f268161297e565b9050919050565b60006020820190508181036000830152612f46816129a1565b9050919050565b60006020820190508181036000830152612f66816129c4565b9050919050565b60006020820190508181036000830152612f86816129e7565b9050919050565b60006020820190508181036000830152612fa681612a0a565b9050919050565b60006020820190508181036000830152612fc681612a2d565b9050919050565b60006020820190508181036000830152612fe681612a96565b9050919050565b6000602082019050818103600083015261300681612adc565b9050919050565b6000602082019050818103600083015261302681612aff565b9050919050565b6000602082019050818103600083015261304681612b22565b9050919050565b6000602082019050818103600083015261306681612b68565b9050919050565b6000602082019050818103600083015261308681612b8b565b9050919050565b600060208201905081810360008301526130a681612bae565b9050919050565b60006020820190506130c26000830184612bf4565b92915050565b60006040820190506130dd6000830185612bf4565b6130ea6020830184612750565b9392505050565b60006130fb61310c565b90506131078282613412565b919050565b6000604051905090565b600067ffffffffffffffff821115613131576131306134fe565b5b61313a8261352d565b9050602081019050919050565b600067ffffffffffffffff821115613162576131616134fe565b5b61316b8261352d565b9050602081019050919050565b600081519050919050565b600081519050919050565b600082825260208201905092915050565b600082825260208201905092915050565b600081905092915050565b60006131c68261334c565b91506131d18361334c565b9250827fffffffffffffffffffffffffffffffffffffffffffffffffffffffffffffffff0382111561320657613205613471565b5b828201905092915050565b600061321c8261334c565b91506132278361334c565b925082613237576132366134a0565b5b828204905092915050565b600061324d8261334c565b91506132588361334c565b9250817fffffffffffffffffffffffffffffffffffffffffffffffffffffffffffffffff048311821515161561329157613290613471565b5b828202905092915050565b60006132a78261334c565b91506132b28361334c565b9250828210156132c5576132c4613471565b5b828203905092915050565b60006132db8261332c565b9050919050565b60006132ed8261332c565b9050919050565b60008115159050919050565b60007fffffffff0000000000000000000000000000000000000000000000000000000082169050919050565b600073ffffffffffffffffffffffffffffffffffffffff82169050919050565b6000819050919050565b600061336182613368565b9050919050565b60006133738261332c565b9050919050565b60006133858261338c565b9050919050565b60006133978261332c565b9050919050565b82818337600083830152505050565b60005b838110156133cb5780820151818401526020810190506133b0565b838111156133da576000848401525b50505050565b600060028204905060018216806133f857607f821691505b6020821081141561340c5761340b6134cf565b5b50919050565b61341b8261352d565b810181811067ffffffffffffffff8211171561343a576134396134fe565b5b80604052505050565b600061344e82613455565b9050919050565b60006134608261353e565b9050919050565b6000819050919050565b7f4e487b7100000000000000000000000000000000000000000000000000000000600052601160045260246000fd5b7f4e487b7100000000000000000000000000000000000000000000000000000000600052601260045260246000fd5b7f4e487b7100000000000000000000000000000000000000000000000000000000600052602260045260246000fd5b7f4e487b7100000000000000000000000000000000000000000000000000000000600052604160045260246000fd5b6000601f19601f8301169050919050565b60008160601b9050919050565b7f7b226e616d65223a220000000000000000000000000000000000000000000000600082015250565b7f4552433732313a207472616e7366657220746f206e6f6e20455243373231526560008201527f63656976657220696d706c656d656e7465720000000000000000000000000000602082015250565b7f41435f494420414c524541445920434c41494d45440000000000000000000000600082015250565b7f222c000000000000000000000000000000000000000000000000000000000000600082015250565b7f4552433732313a20746f6b656e20616c7265616479206d696e74656400000000600082015250565b7f4552433732313a207472616e7366657220746f20746865207a65726f2061646460008201527f7265737300000000000000000000000000000000000000000000000000000000602082015250565b7f4552433732313a20617070726f766520746f2063616c6c657200000000000000600082015250565b7f454e444544000000000000000000000000000000000000000000000000000000600082015250565b7f4552433732313a206f70657261746f7220717565727920666f72206e6f6e657860008201527f697374656e7420746f6b656e0000000000000000000000000000000000000000602082015250565b7f4e4f545f434f4c4c4543544f5200000000000000000000000000000000000000600082015250565b7f4d4f524520455448204e45454445440000000000000000000000000000000000600082015250565b7f4552433732313a20617070726f76652063616c6c6572206973206e6f74206f7760008201527f6e6572206e6f7220617070726f76656420666f7220616c6c0000000000000000602082015250565b7f4552433732313a2062616c616e636520717565727920666f7220746865207a6560008201527f726f206164647265737300000000000000000000000000000000000000000000602082015250565b7f4552433732313a206f776e657220717565727920666f72206e6f6e657869737460008201527f656e7420746f6b656e0000000000000000000000000000000000000000000000602082015250565b7f41435f4944204e4f54204f574e45442042592053454e44455200000000000000600082015250565b7f4552433732313a206d696e7420746f20746865207a65726f2061646472657373600082015250565b7f222c2022696d616765223a202200000000000000000000000000000000000000600082015250565b7f7d00000000000000000000000000000000000000000000000000000000000000600082015250565b7f4552433732313a20617070726f76656420717565727920666f72206e6f6e657860008201527f697374656e7420746f6b656e0000000000000000000000000000000000000000602082015250565b7f222c20226465736372697074696f6e223a220000000000000000000000000000600082015250565b7f4552433732313a207472616e73666572206f6620746f6b656e2074686174206960008201527f73206e6f74206f776e0000000000000000000000000000000000000000000000602082015250565b7f4552433732314d657461646174613a2055524920717565727920666f72206e6f60008201527f6e6578697374656e7420746f6b656e0000000000000000000000000000000000602082015250565b7f4552433732313a20617070726f76616c20746f2063757272656e74206f776e6560008201527f7200000000000000000000000000000000000000000000000000000000000000602082015250565b7f646174613a6170706c69636174696f6e2f6a736f6e3b6261736536342c000000600082015250565b7f4e4f545f53544152544544000000000000000000000000000000000000000000600082015250565b7f4552433732313a207472616e736665722063616c6c6572206973206e6f74206f60008201527f776e6572206e6f7220617070726f766564000000000000000000000000000000602082015250565b7f4d41585f534f4c445f3936000000000000000000000000000000000000000000600082015250565b7f646174613a696d6167652f7376672b786d6c3b6261736536342c000000000000600082015250565b613b72816132d0565b8114613b7d57600080fd5b50565b613b89816132f4565b8114613b9457600080fd5b50565b613ba081613300565b8114613bab57600080fd5b50565b613bb78161334c565b8114613bc257600080fd5b5056fe4142434445464748494a4b4c4d4e4f505152535455565758595a6162636465666768696a6b6c6d6e6f707172737475767778797a303132333435363738392b2f5061696e74696e6773206f6620666f72676f7474656e20736f756c7320627920766172696f75732073696d756c61746564206d696e647320746861742074727920746f2072656d656d6265722074686f73652077686f2074686579206f6e6365206b6e657720696e207468652064656661756c7420776f726c642ea264697066735822122046761333521de990d73df9176f765906b9730335b1f9e6e5211d3700d3f7ea3664736f6c63430008040033608060405234801561001057600080fd5b506158de80620000216000396000f3fe608060405234801561001057600080fd5b50600436106101165760003560e01c806398a8716a116100a2578063cadbdaad11610071578063cadbdaad1461038d578063d7568479146103bd578063dcaf635d146103ed578063effaaf6a1461041d578063f41b75231461044d57610116565b806398a8716a146102cd5780639a2227f9146102fd5780639f42c2a81461032d578063c94123f01461035d57610116565b8063352fc7ee116100e9578063352fc7ee146101db57806337ee03ec1461020b578063724441dd1461023b57806388de3fb21461026d57806397959a881461029d57610116565b80631381a8461461011b5780631411e4e51461014b57806319c561e81461017b57806332a35430146101ab575b600080fd5b61013560048036038101906101309190612eb2565b61047d565b6040516101429190614162565b60405180910390f35b61016560048036038101906101609190612a5b565b610566565b6040516101729190614162565b60405180910390f35b61019560048036038101906101909190612e4d565b610851565b6040516101a29190614162565b60405180910390f35b6101c560048036038101906101c09190612a5b565b610937565b6040516101d29190614162565b60405180910390f35b6101f560048036038101906101f09190612bb2565b610a47565b6040516102029190614162565b60405180910390f35b61022560048036038101906102209190612e76565b610be5565b6040516102329190614162565b60405180910390f35b61025560048036038101906102509190612a5b565b611067565b604051610264939291906141c4565b60405180910390f35b61028760048036038101906102829190612c06565b611217565b6040516102949190614162565b60405180910390f35b6102b760048036038101906102b29190612bb2565b611240565b6040516102c49190614162565b60405180910390f35b6102e760048036038101906102e29190612a9c565b61150d565b6040516102f49190614162565b60405180910390f35b61031760048036038101906103129190612cb3565b6116d0565b6040516103249190614162565b60405180910390f35b61034760048036038101906103429190612bb2565b61170b565b6040516103549190614162565b60405180910390f35b61037760048036038101906103729190612df9565b6119d2565b6040516103849190614162565b60405180910390f35b6103a760048036038101906103a29190612a5b565b611a12565b6040516103b49190614162565b60405180910390f35b6103d760048036038101906103d29190612a5b565b611c56565b6040516103e49190614162565b60405180910390f35b61040760048036038101906104029190612c47565b61205f565b6040516104149190614162565b60405180910390f35b61043760048036038101906104329190612e76565b61208b565b6040516104449190614162565b60405180910390f35b61046760048036038101906104629190612a5b565b612335565b6040516104749190614162565b60405180910390f35b606060018214156104b75761049183612590565b6040516020016104a19190613e89565b6040516020818303038152906040529050610560565b60028214156104ef576104c983612590565b6040516020016104d99190613f32565b6040516020818303038152906040529050610560565b60038214156105275761050183612590565b6040516020016105119190613d65565b6040516020818303038152906040529050610560565b600482141561055f5761053983612590565b6040516020016105499190613f54565b6040516020818303038152906040529050610560565b5b92915050565b6060600061064f836040518060400160405280601181526020017f72696e67446973706c6163656d656e7431000000000000000000000000000000815250600f60106040518060400160405280600481526020017f67726579000000000000000000000000000000000000000000000000000000008152506040518060400160405280600181526020017f52000000000000000000000000000000000000000000000000000000000000008152506040518060400160405280601f81526020017f66696c7465723a2075726c282372696e67446973706c6163656d656e7431290081525061150d565b90506000610738846040518060400160405280601181526020017f72696e67446973706c6163656d656e7432000000000000000000000000000000815250601160126040518060400160405280600581526020017f626c61636b0000000000000000000000000000000000000000000000000000008152506040518060400160405280600181526020017f47000000000000000000000000000000000000000000000000000000000000008152506040518060400160405280601f81526020017f66696c7465723a2075726c282372696e67446973706c6163656d656e7432290081525061150d565b90506000610821856040518060400160405280601181526020017f72696e67446973706c6163656d656e7433000000000000000000000000000000815250601360146040518060400160405280600581526020017f626c61636b0000000000000000000000000000000000000000000000000000008152506040518060400160405280600181526020017f42000000000000000000000000000000000000000000000000000000000000008152506040518060400160405280601f81526020017f66696c7465723a2075726c282372696e67446973706c6163656d656e7433290081525061150d565b90508282826040516020016108389392919061392c565b6040516020818303038152906040529350505050919050565b6060600082101580156108645750605582105b156108a6576040518060400160405280601181526020017f53706c697420436f6d706f736974696f6e0000000000000000000000000000008152509050610932565b605582101580156108b7575060aa82105b156108f9576040518060400160405280601181526020017f547269616420436f6d706f736974696f6e0000000000000000000000000000008152509050610932565b6040518060400160405280601581526020017f416e616c6f676f757320436f6d706f736974696f6e000000000000000000000081525090505b919050565b6060600060ff6103e861094b85600661273d565b60ff166109589190614361565b61096291906142ff565b9050600060ff6103e861097686600661273d565b60ff166109839190614361565b61098d91906142ff565b9050600060ff60286109a087600761273d565b60ff166109ad9190614361565b6109b791906142ff565b90506109f76040518060400160405280601181526020017f6672616d65446973706c6163656d656e74000000000000000000000000000000815250611217565b610a13610a0384612590565b610a0e86600461047d565b61205f565b610a1c83612590565b604051602001610a2e9392919061395d565b6040516020818303038152906040529350505050919050565b6060600060ff6103e8610a5b86600361273d565b60ff16610a689190614361565b610a7291906142ff565b9050600060ff600a610a8587600461273d565b60ff16610a929190614361565b610a9c91906142ff565b9050600060ff605a610aaf88600561273d565b60ff16610abc9190614361565b610ac691906142ff565b6032610ad291906142a9565b9050600060ff6037610ae589601e61273d565b60ff16610af29190614361565b610afc91906142ff565b603c610b0891906143ef565b9050610b486040518060400160405280601681526020017f6261636b67726f756e64446973706c6163656d656e7400000000000000000000815250611217565b610b916040518060400160405280600381526020017f3130300000000000000000000000000000000000000000000000000000000000815250610b8c87600261047d565b61205f565b610b9a88612590565b610ba384612590565b610bac87612590565b610bb587612590565b604051602001610bca969594939291906139af565b60405160208183030381529060405294505050505092915050565b606060008360001b604051602001610bfd91906138ed565b604051602081830303815290604052905060006040518060200160405280600081525090506000604051602001610c339061414d565b6040516020818303038152906040529050600015158515151415610c7257604051602001610c6090613f1d565b60405160208183030381529060405290505b6000806000610c8086611067565b9250925092506000610c9e610c9688600261273d565b60ff16610851565b9050600060ff6037610cb18a601e61273d565b60ff16610cbe9190614361565b610cc891906142ff565b603c610cd491906143ef565b905060006040518060200160405280600081525090506000806080610cfa8c601661273d565b60ff161080610d0d5750600115158d1515145b15610d515789610d1c89612590565b604051602001610d2d929190613c51565b60405160208183030381529060405299508180610d4990614505565b925050600190505b6080610d5e8c601761273d565b60ff161080610d715750600115158d1515145b15610da75789604051602001610d879190613c2f565b60405160208183030381529060405299508180610da390614505565b9250505b6080610db48c601861273d565b60ff161080610dc75750600115158d1515145b15610dfd5789604051602001610ddd9190613c8b565b60405160208183030381529060405299508180610df990614505565b9250505b6080610e0a8c601961273d565b60ff161080610e1d5750600115158d1515145b15610e535789604051602001610e339190613d21565b60405160208183030381529060405299508180610e4f90614505565b9250505b6080610e608c601a61273d565b60ff161080610e735750600115158d1515145b15610eb75789610e8288612590565b604051602001610e93929190613cad565b60405160208183030381529060405299508180610eaf90614505565b925050600190505b6080610ec48c601b61273d565b60ff161080610ed75750600115158d1515145b15610f1b5789610ee687612590565b604051602001610ef7929190613ce7565b60405160208183030381529060405299508180610f1390614505565b925050600190505b6080610f288c601c61273d565b60ff161080610f3b5750600115158d1515145b15610f715789604051602001610f519190613b96565b60405160208183030381529060405299508180610f6d90614505565b9250505b6080610f7e8c601d61273d565b60ff161080610f915750600115158d1515145b15610fc75789604051602001610fa79190613d43565b60405160208183030381529060405299508180610fc390614505565b9250505b610fd082612590565b604051602001610fe09190614120565b6040516020818303038152906040529250606060011515821515141561102d578561100a86612590565b60405160200161101b92919061405d565b60405160208183030381529060405290505b89818c866040516020016110449493929190614009565b6040516020818303038152906040529c5050505050505050505050505092915050565b60008060008060ff61016861107d87600161273d565b60ff1661108a9190614361565b61109491906142ff565b905060006110a386600261273d565b60ff16905060008060006110b684610851565b90506040518060400160405280601181526020017f53706c697420436f6d706f736974696f6e00000000000000000000000000000081525080519060200120818051906020012014156111405761016860968661111391906142a9565b61111d9190614558565b925061016860d28661112f91906142a9565b6111399190614558565b9150611202565b6040518060400160405280601181526020017f547269616420436f6d706f736974696f6e00000000000000000000000000000081525080519060200120818051906020012014156111c85761016860788661119b91906142a9565b6111a59190614558565b925061016860f0866111b791906142a9565b6111c19190614558565b9150611201565b610168601e866111d891906142a9565b6111e29190614558565b9250610168605a866111f491906142a9565b6111fe9190614558565b91505b5b84838397509750975050505050509193909250565b60608160405160200161122a9190613ef0565b6040516020818303038152906040529050919050565b60606000600361125185600061273d565b61125b9190614330565b9050600060ff6103e861126f87600b61273d565b60ff1661127c9190614361565b61128691906142ff565b9050600060ff61019061129a88600c61273d565b60ff166112a79190614361565b6112b191906142ff565b9050600060ff60376112c489601e61273d565b60ff166112d19190614361565b6112db91906142ff565b603c6112e791906143ef565b905060006112f487612590565b6112fd83612590565b60405160200161130e929190613eab565b604051602081830303815290604052905061135d6040518060400160405280601081526020017f68656164446973706c6163656d656e7400000000000000000000000000000000815250611217565b6113a66040518060400160405280600381526020017f31303000000000000000000000000000000000000000000000000000000000008152506113a187600361047d565b61205f565b6113af85612590565b6114de6040518060400160405280600381526020017f33303000000000000000000000000000000000000000000000000000000000008152506040518060400160405280600381526020017f32373000000000000000000000000000000000000000000000000000000000008152506114368b608c61142e9190614423565b60ff16612590565b6040518060400160405280600481526020017f6e6f6e65000000000000000000000000000000000000000000000000000000008152506040518060400160405280600181526020017f3000000000000000000000000000000000000000000000000000000000000000815250896040518060400160405280601e81526020017f66696c7465723a2075726c282368656164446973706c6163656d656e742900008152506116d0565b6040516020016114f19493929190613a54565b6040516020818303038152906040529550505050505092915050565b60606000600361151e8a600061273d565b6115289190614330565b9050600060ff6103e861153b8c8b61273d565b60ff166115489190614361565b61155291906142ff565b9050600060ff6103e86115658d8b61273d565b60ff166115729190614361565b61157c91906142ff565b90506115878a611217565b6115a361159384612590565b61159e84600461047d565b61205f565b8761169e6040518060400160405280600381526020017f33303000000000000000000000000000000000000000000000000000000000008152506040518060400160405280600381526020017f323730000000000000000000000000000000000000000000000000000000000081525061162b89608c6116239190614423565b60ff16612590565b8d6040518060400160405280600181526020017f34000000000000000000000000000000000000000000000000000000000000008152506040518060400160405280600481526020017f6e6f6e65000000000000000000000000000000000000000000000000000000008152508e6116d0565b6040516020016116b19493929190613b13565b6040516020818303038152906040529350505050979650505050505050565b6060878787878688876040516020016116ef9796959493929190613d87565b6040516020818303038152906040529050979650505050505050565b60606000600361171c85600061273d565b6117269190614330565b9050600060ff6103e861173a87600d61273d565b60ff166117479190614361565b61175191906142ff565b9050600060ff6103e861176588600e61273d565b60ff166117729190614361565b61177c91906142ff565b9050600060ff61019061179089600e61273d565b60ff1661179d9190614361565b6117a791906142ff565b9050600060ff60376117ba8a601e61273d565b60ff166117c79190614361565b6117d191906142ff565b603c6117dd91906143ef565b905060006117ea88612590565b6117f383612590565b604051602001611804929190613eab565b60405160208183030381529060405290506118536040518060400160405280601181526020017f68656164446973706c6163656d656e7432000000000000000000000000000000815250611217565b61185e86600361047d565b61186986600361047d565b61187286612590565b6119a16040518060400160405280600381526020017f33303000000000000000000000000000000000000000000000000000000000008152506040518060400160405280600381526020017f32373000000000000000000000000000000000000000000000000000000000008152506118f98d60786118f19190614423565b60ff16612590565b6040518060400160405280600481526020017f6e6f6e65000000000000000000000000000000000000000000000000000000008152506040518060400160405280600181526020017f30000000000000000000000000000000000000000000000000000000000000008152508a6040518060400160405280601f81526020017f66696c7465723a2075726c282368656164446973706c6163656d656e743229008152506116d0565b6040516020016119b5959493929190613bb8565b604051602081830303815290604052965050505050505092915050565b6060826119ea6119e184612590565b600060086127f3565b6040516020016119fb929190613b67565b604051602081830303815290604052905092915050565b606060006003611a2384600061273d565b611a2d9190614330565b9050600060ff6103e8611a4186600a61273d565b60ff16611a4e9190614361565b611a5891906142ff565b9050611a986040518060400160405280601081526020017f626f6479446973706c6163656d656e7400000000000000000000000000000000815250611217565b611ae16040518060400160405280600381526020017f3130300000000000000000000000000000000000000000000000000000000000815250611adc84600461047d565b61205f565b611c2c6040518060400160405280600381526020017f3330300000000000000000000000000000000000000000000000000000000000815250611b378660ff166102bc611b2e91906143bb565b61ffff16612590565b611b4f8760b4611b479190614423565b60ff16612590565b6040518060400160405280600581526020017f626c61636b0000000000000000000000000000000000000000000000000000008152506040518060400160405280600181526020017f30000000000000000000000000000000000000000000000000000000000000008152506040518060400160405280600581526020017f626c61636b0000000000000000000000000000000000000000000000000000008152506040518060400160405280601e81526020017f66696c7465723a2075726c2823626f6479446973706c6163656d656e742900008152506116d0565b604051602001611c3e93929190613aa8565b60405160208183030381529060405292505050919050565b6060600060ff6103e8611c6a85601561273d565b60ff16611c779190614361565b611c8191906142ff565b9050600060ff600f611c9486601561273d565b60ff16611ca19190614361565b611cab91906142ff565b6019611cb791906143ef565b90506000611cf96040518060400160405280600f81526020017f657965446973706c6163656d656e740000000000000000000000000000000000815250611217565b611d426040518060400160405280600381526020017f3130300000000000000000000000000000000000000000000000000000000000815250611d3d86600461047d565b61205f565b604051602001611d53929190613ae4565b60405160208183030381529060405290506000611ebb6040518060400160405280600381526020017f32353000000000000000000000000000000000000000000000000000000000008152506040518060400160405280600381526020017f3237300000000000000000000000000000000000000000000000000000000000815250611dde86612590565b6040518060400160405280600581526020017f626c61636b0000000000000000000000000000000000000000000000000000008152506040518060400160405280600181526020017f31000000000000000000000000000000000000000000000000000000000000008152506040518060400160405280600581526020017f77686974650000000000000000000000000000000000000000000000000000008152506040518060400160405280601d81526020017f66696c7465723a2075726c2823657965446973706c6163656d656e74290000008152506116d0565b6120106040518060400160405280600381526020017f33323000000000000000000000000000000000000000000000000000000000008152506040518060400160405280600381526020017f3237300000000000000000000000000000000000000000000000000000000000815250611f3387612590565b6040518060400160405280600581526020017f626c61636b0000000000000000000000000000000000000000000000000000008152506040518060400160405280600181526020017f31000000000000000000000000000000000000000000000000000000000000008152506040518060400160405280600581526020017f77686974650000000000000000000000000000000000000000000000000000008152506040518060400160405280601d81526020017f66696c7465723a2075726c2823657965446973706c6163656d656e74290000008152506116d0565b604051602001612021929190613908565b60405160208183030381529060405290508181604051602001612045929190613908565b604051602081830303815290604052945050505050919050565b60608282604051602001612074929190613e44565b604051602081830303815290604052905092915050565b606060008360001b6040516020016120a391906138ed565b604051602081830303815290604052905060008060006120c284611067565b9250925092506000604051806020016040528060008152509050600060405180602001604052806000815250905060006040518060200160405280600081525090506000604051806020016040528060008152509050600060405180602001604052806000815250905060006040518060200160405280600081525090506000604051806020016040528060008152509050600060405180602001604052806000815250905060806121758d601661273d565b60ff1610806121885750600115158e1515145b1561219a576121978c8c610a47565b97505b60806121a78d601761273d565b60ff1610806121ba5750600115158e1515145b156121cb576121c88c610937565b96505b60806121d88d601861273d565b60ff1610806121eb5750600115158e1515145b156121fc576121f98c612335565b95505b60806122098d601961273d565b60ff16108061221c5750600115158e1515145b1561222d5761222a8c611a12565b94505b608061223a8d601a61273d565b60ff16108061224d5750600115158e1515145b1561225f5761225c8c8b611240565b93505b608061226c8d601b61273d565b60ff16108061227f5750600115158e1515145b156122915761228e8c8a61170b565b92505b608061229e8d601c61273d565b60ff1610806122b15750600115158e1515145b156122c2576122bf8c610566565b91505b60806122cf8d601d61273d565b60ff1610806122e25750600115158e1515145b156122f3576122f08c611c56565b90505b8787878787878787604051602001612312989796959493929190613f76565b6040516020818303038152906040529c5050505050505050505050505092915050565b60606000600361234684600061273d565b6123509190614330565b9050600060ff6103e861236486600861273d565b60ff166123719190614361565b61237b91906142ff565b9050600060ff602861238e87600961273d565b60ff1661239b9190614361565b6123a591906142ff565b90506123e56040518060400160405280600a81526020017f6261636b53706c61736800000000000000000000000000000000000000000000815250611217565b61242e6040518060400160405280600481526020017f323030300000000000000000000000000000000000000000000000000000000081525061242985600461047d565b61205f565b6125656040518060400160405280600381526020017f33303000000000000000000000000000000000000000000000000000000000008152506040518060400160405280600381526020017f32373000000000000000000000000000000000000000000000000000000000008152506124b58860aa6124ad9190614423565b60ff16612590565b6040518060400160405280601481526020017f75726c28236261636b53706c61736847726164290000000000000000000000008152506124f488612590565b6040518060400160405280600481526020017f6e6f6e65000000000000000000000000000000000000000000000000000000008152506040518060400160405280601881526020017f66696c7465723a2075726c28236261636b53706c6173682900000000000000008152506116d0565b604051602001612577939291906140a2565b6040516020818303038152906040529350505050919050565b606060008214156125d8576040518060400160405280600181526020017f30000000000000000000000000000000000000000000000000000000000000008152509050612738565b600082905060005b6000821461260a5780806125f390614505565b915050600a8261260391906142ff565b91506125e0565b60008167ffffffffffffffff81111561264c577f4e487b7100000000000000000000000000000000000000000000000000000000600052604160045260246000fd5b6040519080825280601f01601f19166020018201604052801561267e5781602001600182028036833780820191505090505b5090505b600085146127315760018261269791906143ef565b9150600a856126a69190614558565b60306126b291906142a9565b60f81b8183815181106126ee577f4e487b7100000000000000000000000000000000000000000000000000000000600052603260045260246000fd5b60200101907effffffffffffffffffffffffffffffffffffffffffffffffffffffffffffff1916908160001a905350600a8561272a91906142ff565b9450612682565b8093505050505b919050565b60008160018361274d91906142a9565b101561278e576040517f08c379a000000000000000000000000000000000000000000000000000000000815260040161278590614184565b60405180910390fd5b60018261279b91906142a9565b835110156127de576040517f08c379a00000000000000000000000000000000000000000000000000000000081526004016127d5906141a4565b60405180910390fd5b60008260018501015190508091505092915050565b606060008490506000848461280891906143ef565b67ffffffffffffffff811115612847577f4e487b7100000000000000000000000000000000000000000000000000000000600052604160045260246000fd5b6040519080825280601f01601f1916602001820160405280156128795781602001600182028036833780820191505090505b50905060008590505b84811015612954578281815181106128c3577f4e487b7100000000000000000000000000000000000000000000000000000000600052603260045260246000fd5b602001015160f81c60f81b8287836128db91906143ef565b81518110612912577f4e487b7100000000000000000000000000000000000000000000000000000000600052603260045260246000fd5b60200101907effffffffffffffffffffffffffffffffffffffffffffffffffffffffffffff1916908160001a905350808061294c90614505565b915050612882565b5080925050509392505050565b600061297461296f84614220565b6141fb565b90508281526020810184848401111561298c57600080fd5b612997848285614492565b509392505050565b60006129b26129ad84614251565b6141fb565b9050828152602081018484840111156129ca57600080fd5b6129d5848285614492565b509392505050565b6000813590506129ec8161587a565b92915050565b600082601f830112612a0357600080fd5b8135612a13848260208601612961565b91505092915050565b600082601f830112612a2d57600080fd5b8135612a3d84826020860161299f565b91505092915050565b600081359050612a5581615891565b92915050565b600060208284031215612a6d57600080fd5b600082013567ffffffffffffffff811115612a8757600080fd5b612a93848285016129f2565b91505092915050565b600080600080600080600060e0888a031215612ab757600080fd5b600088013567ffffffffffffffff811115612ad157600080fd5b612add8a828b016129f2565b975050602088013567ffffffffffffffff811115612afa57600080fd5b612b068a828b01612a1c565b9650506040612b178a828b01612a46565b9550506060612b288a828b01612a46565b945050608088013567ffffffffffffffff811115612b4557600080fd5b612b518a828b01612a1c565b93505060a088013567ffffffffffffffff811115612b6e57600080fd5b612b7a8a828b01612a1c565b92505060c088013567ffffffffffffffff811115612b9757600080fd5b612ba38a828b01612a1c565b91505092959891949750929550565b60008060408385031215612bc557600080fd5b600083013567ffffffffffffffff811115612bdf57600080fd5b612beb858286016129f2565b9250506020612bfc85828601612a46565b9150509250929050565b600060208284031215612c1857600080fd5b600082013567ffffffffffffffff811115612c3257600080fd5b612c3e84828501612a1c565b91505092915050565b60008060408385031215612c5a57600080fd5b600083013567ffffffffffffffff811115612c7457600080fd5b612c8085828601612a1c565b925050602083013567ffffffffffffffff811115612c9d57600080fd5b612ca985828601612a1c565b9150509250929050565b600080600080600080600060e0888a031215612cce57600080fd5b600088013567ffffffffffffffff811115612ce857600080fd5b612cf48a828b01612a1c565b975050602088013567ffffffffffffffff811115612d1157600080fd5b612d1d8a828b01612a1c565b965050604088013567ffffffffffffffff811115612d3a57600080fd5b612d468a828b01612a1c565b955050606088013567ffffffffffffffff811115612d6357600080fd5b612d6f8a828b01612a1c565b945050608088013567ffffffffffffffff811115612d8c57600080fd5b612d988a828b01612a1c565b93505060a088013567ffffffffffffffff811115612db557600080fd5b612dc18a828b01612a1c565b92505060c088013567ffffffffffffffff811115612dde57600080fd5b612dea8a828b01612a1c565b91505092959891949750929550565b60008060408385031215612e0c57600080fd5b600083013567ffffffffffffffff811115612e2657600080fd5b612e3285828601612a1c565b9250506020612e4385828601612a46565b9150509250929050565b600060208284031215612e5f57600080fd5b6000612e6d84828501612a46565b91505092915050565b60008060408385031215612e8957600080fd5b6000612e9785828601612a46565b9250506020612ea8858286016129dd565b9150509250929050565b60008060408385031215612ec557600080fd5b6000612ed385828601612a46565b9250506020612ee485828601612a46565b9150509250929050565b612eff612efa82614463565b61454e565b82525050565b6000612f1082614282565b612f1a818561428d565b9350612f2a8185602086016144a1565b612f3381614616565b840191505092915050565b6000612f4982614282565b612f53818561429e565b9350612f638185602086016144a1565b80840191505092915050565b6000612f7c60048361429e565b9150612f8782614627565b600482019050919050565b6000612f9f60118361429e565b9150612faa82614650565b601182019050919050565b6000612fc260768361429e565b9150612fcd82614679565b607682019050919050565b6000612fe560068361429e565b9150612ff082614714565b600682019050919050565b6000613008600c8361429e565b91506130138261473d565b600c82019050919050565b600061302b60138361429e565b915061303682614766565b601382019050919050565b600061304e602c8361429e565b91506130598261478f565b602c82019050919050565b6000613071605a8361429e565b915061307c826147de565b605a82019050919050565b600061309460098361429e565b915061309f82614853565b600982019050919050565b60006130b760278361429e565b91506130c28261487c565b602782019050919050565b60006130da60268361429e565b91506130e5826148cb565b602682019050919050565b60006130fd60398361429e565b91506131088261491a565b603982019050919050565b600061312060368361429e565b915061312b82614969565b603682019050919050565b600061314360378361429e565b915061314e826149b8565b603782019050919050565b600061316660348361429e565b915061317182614a07565b603482019050919050565b6000613189603e8361429e565b915061319482614a56565b603e82019050919050565b60006131ac60138361429e565b91506131b782614aa5565b601382019050919050565b60006131cf600a8361429e565b91506131da82614ace565b600a82019050919050565b60006131f260018361429e565b91506131fd82614af7565b600182019050919050565b600061321560028361429e565b915061322082614b20565b600282019050919050565b600061323860288361429e565b915061324382614b49565b602882019050919050565b600061325b60268361429e565b915061326682614b98565b602682019050919050565b600061327e60638361429e565b915061328982614be7565b606382019050919050565b60006132a1603d8361429e565b91506132ac82614c82565b603d82019050919050565b60006132c460048361429e565b91506132cf82614cd1565b600482019050919050565b60006132e760118361429e565b91506132f282614cfa565b601182019050919050565b600061330a60078361429e565b915061331582614d23565b600782019050919050565b600061332d600c8361429e565b915061333882614d4c565b600c82019050919050565b600061335060198361429e565b915061335b82614d75565b601982019050919050565b6000613373603d8361429e565b915061337e82614d9e565b603d82019050919050565b6000613396603a8361429e565b91506133a182614ded565b603a82019050919050565b60006133b9602a8361429e565b91506133c482614e3c565b602a82019050919050565b60006133dc60778361429e565b91506133e782614e8b565b607782019050919050565b60006133ff60038361429e565b915061340a82614f26565b600382019050919050565b600061342260028361429e565b915061342d82614f4f565b600282019050919050565b600061344560058361429e565b915061345082614f78565b600582019050919050565b600061346860778361429e565b915061347382614fa1565b607782019050919050565b600061348b60648361429e565b91506134968261503c565b606482019050919050565b60006134ae60058361429e565b91506134b9826150d7565b600582019050919050565b60006134d160118361429e565b91506134dc82615100565b601182019050919050565b60006134f460578361429e565b91506134ff82615129565b605782019050919050565b6000613517601d8361429e565b91506135228261519e565b601d82019050919050565b600061353a60178361429e565b9150613545826151c7565b601782019050919050565b600061355d60108361429e565b9150613568826151f0565b601082019050919050565b6000613580602a8361429e565b915061358b82615219565b602a82019050919050565b60006135a3600f8361429e565b91506135ae82615268565b600f82019050919050565b60006135c660778361429e565b91506135d182615291565b607782019050919050565b60006135e960038361429e565b91506135f48261532c565b600382019050919050565b600061360c60018361429e565b915061361782615355565b600182019050919050565b600061362f60658361429e565b915061363a8261537e565b606582019050919050565b600061365260378361429e565b915061365d82615419565b603782019050919050565b600061367560028361429e565b915061368082615468565b600282019050919050565b600061369860078361429e565b91506136a382615491565b600782019050919050565b60006136bb60108361428d565b91506136c6826154ba565b602082019050919050565b60006136de60088361429e565b91506136e9826154e3565b600882019050919050565b600061370160188361429e565b915061370c8261550c565b601882019050919050565b600061372460348361429e565b915061372f82615535565b603482019050919050565b6000613747602b8361429e565b915061375282615584565b602b82019050919050565b600061376a60068361429e565b9150613775826155d3565b600682019050919050565b600061378d60138361428d565b9150613798826155fc565b602082019050919050565b60006137b060048361429e565b91506137bb82615625565b600482019050919050565b60006137d360238361429e565b91506137de8261564e565b602382019050919050565b60006137f660238361429e565b91506138018261569d565b602382019050919050565b600061381960558361429e565b9150613824826156ec565b605582019050919050565b600061383c60068361429e565b915061384782615761565b600682019050919050565b600061385f603e8361429e565b915061386a8261578a565b603e82019050919050565b600061388260128361429e565b915061388d826157d9565b601282019050919050565b60006138a560318361429e565b91506138b082615802565b603182019050919050565b60006138c860128361429e565b91506138d382615851565b601282019050919050565b6138e78161447b565b82525050565b60006138f98284612eee565b60208201915081905092915050565b60006139148285612f3e565b91506139208284612f3e565b91508190509392505050565b60006139388286612f3e565b91506139448285612f3e565b91506139508284612f3e565b9150819050949350505050565b60006139698286612f3e565b91506139758285612f3e565b915061398082612fb5565b915061398b82613622565b91506139978284612f3e565b91506139a28261373a565b9150819050949350505050565b60006139bb8289612f3e565b91506139c78288612f3e565b91506139d282613064565b91506139dd82613159565b91506139e98287612f3e565b91506139f482613668565b9150613a008286612f3e565b9150613a0b8261352d565b9150613a178285612f3e565b9150613a2282613573565b9150613a2e8284612f3e565b9150613a39826136f4565b9150613a4482613271565b9150819050979650505050505050565b6000613a608287612f3e565b9150613a6c8286612f3e565b9150613a778261317c565b9150613a838285612f3e565b9150613a8e82613645565b9150613a9a8284612f3e565b915081905095945050505050565b6000613ab48286612f3e565b9150613ac08285612f3e565b9150613acb8261345b565b9150613ad78284612f3e565b9150819050949350505050565b6000613af08285612f3e565b9150613afc8284612f3e565b9150613b07826135b9565b91508190509392505050565b6000613b1f8287612f3e565b9150613b2b8286612f3e565b9150613b368261380c565b9150613b428285612f3e565b9150613b4d826137c6565b9150613b598284612f3e565b915081905095945050505050565b6000613b738285612f3e565b9150613b7e82612f92565b9150613b8a8284612f3e565b91508190509392505050565b6000613ba28284612f3e565b9150613bad8261301e565b915081905092915050565b6000613bc48288612f3e565b9150613bcf826130f0565b9150613bdb8287612f3e565b9150613be6826131e5565b9150613bf28286612f3e565b9150613bfd8261347e565b9150613c098285612f3e565b9150613c1482613136565b9150613c208284612f3e565b91508190509695505050505050565b6000613c3b8284612f3e565b9150613c468261319f565b915081905092915050565b6000613c5d8285612f3e565b9150613c6882613294565b9150613c748284612f3e565b9150613c7f826137a3565b91508190509392505050565b6000613c978284612f3e565b9150613ca282613343565b915081905092915050565b6000613cb98285612f3e565b9150613cc482613366565b9150613cd08284612f3e565b9150613cdb826137a3565b91508190509392505050565b6000613cf38285612f3e565b9150613cfe82613852565b9150613d0a8284612f3e565b9150613d15826137a3565b91508190509392505050565b6000613d2d8284612f3e565b9150613d3882613875565b915081905092915050565b6000613d4f8284612f3e565b9150613d5a826138bb565b915081905092915050565b6000613d7082612f6f565b9150613d7c8284612f3e565b915081905092915050565b6000613d9282612ffb565b9150613d9e828a612f3e565b9150613da982612fd8565b9150613db58289612f3e565b9150613dc082613438565b9150613dcc8288612f3e565b9150613dd7826131c2565b9150613de38287612f3e565b9150613dee826136d1565b9150613dfa8286612f3e565b9150613e0582613550565b9150613e118285612f3e565b9150613e1c82613087565b9150613e288284612f3e565b9150613e33826135dc565b915081905098975050505050505050565b6000613e4f826130cd565b9150613e5b8285612f3e565b9150613e66826134c4565b9150613e728284612f3e565b9150613e7d8261324e565b91508190509392505050565b6000613e9482613208565b9150613ea08284612f3e565b915081905092915050565b6000613eb6826132b7565b9150613ec28285612f3e565b9150613ecd82613668565b9150613ed98284612f3e565b9150613ee4826132fd565b91508190509392505050565b6000613efb82613320565b9150613f078284612f3e565b9150613f128261350a565b915081905092915050565b6000613f28826133ac565b9150819050919050565b6000613f3d826133f2565b9150613f498284612f3e565b915081905092915050565b6000613f5f826134a1565b9150613f6b8284612f3e565b915081905092915050565b6000613f81826134e7565b9150613f8c82613389565b9150613f98828b612f3e565b9150613fa4828a612f3e565b9150613fb08289612f3e565b9150613fbc8288612f3e565b9150613fc88287612f3e565b9150613fd48286612f3e565b9150613fe08285612f3e565b9150613fec8284612f3e565b9150613ff78261382f565b91508190509998505050505050505050565b600061401482613596565b91506140208287612f3e565b915061402c8286612f3e565b91506140388285612f3e565b91506140448284612f3e565b915061404f826135ff565b915081905095945050505050565b600061406882613717565b91506140748285612f3e565b915061407f82613041565b915061408b8284612f3e565b9150614096826137a3565b91508190509392505050565b60006140ad8261375d565b91506140b882613113565b91506140c3826130aa565b91506140ce8261322b565b91506140d9826132da565b91506140e48261368b565b91506140f08286612f3e565b91506140fc8285612f3e565b9150614107826133cf565b91506141138284612f3e565b9150819050949350505050565b600061412b826137e9565b91506141378284612f3e565b915061414282613415565b915081905092915050565b600061415882613898565b9150819050919050565b6000602082019050818103600083015261417c8184612f05565b905092915050565b6000602082019050818103600083015261419d816136ae565b9050919050565b600060208201905081810360008301526141bd81613780565b9050919050565b60006060820190506141d960008301866138de565b6141e660208301856138de565b6141f360408301846138de565b949350505050565b6000614205614216565b905061421182826144d4565b919050565b6000604051905090565b600067ffffffffffffffff82111561423b5761423a6145e7565b5b61424482614616565b9050602081019050919050565b600067ffffffffffffffff82111561426c5761426b6145e7565b5b61427582614616565b9050602081019050919050565b600081519050919050565b600082825260208201905092915050565b600081905092915050565b60006142b48261447b565b91506142bf8361447b565b9250827fffffffffffffffffffffffffffffffffffffffffffffffffffffffffffffffff038211156142f4576142f3614589565b5b828201905092915050565b600061430a8261447b565b91506143158361447b565b925082614325576143246145b8565b5b828204905092915050565b600061433b82614485565b915061434683614485565b925082614356576143556145b8565b5b828204905092915050565b600061436c8261447b565b91506143778361447b565b9250817fffffffffffffffffffffffffffffffffffffffffffffffffffffffffffffffff04831182151516156143b0576143af614589565b5b828202905092915050565b60006143c68261446d565b91506143d18361446d565b9250828210156143e4576143e3614589565b5b828203905092915050565b60006143fa8261447b565b91506144058361447b565b92508282101561441857614417614589565b5b828203905092915050565b600061442e82614485565b915061443983614485565b92508282101561444c5761444b614589565b5b828203905092915050565b60008115159050919050565b6000819050919050565b600061ffff82169050919050565b6000819050919050565b600060ff82169050919050565b82818337600083830152505050565b60005b838110156144bf5780820151818401526020810190506144a4565b838111156144ce576000848401525b50505050565b6144dd82614616565b810181811067ffffffffffffffff821117156144fc576144fb6145e7565b5b80604052505050565b60006145108261447b565b91507fffffffffffffffffffffffffffffffffffffffffffffffffffffffffffffffff82141561454357614542614589565b5b600182019050919050565b6000819050919050565b60006145638261447b565b915061456e8361447b565b92508261457e5761457d6145b8565b5b828206905092915050565b7f4e487b7100000000000000000000000000000000000000000000000000000000600052601160045260246000fd5b7f4e487b7100000000000000000000000000000000000000000000000000000000600052601260045260246000fd5b7f4e487b7100000000000000000000000000000000000000000000000000000000600052604160045260246000fd5b6000601f19601f8301169050919050565b7f302e303000000000000000000000000000000000000000000000000000000000600082015250565b7f20466f72676f7474656e20536f756c2023000000000000000000000000000000600082015250565b7f3c6665446973706c6163656d656e744d617020696e323d2274757262756c656e60008201527f63652220696e3d22536f757263654772617068696322207363616c653d22353060208201527f2220784368616e6e656c53656c6563746f723d22472220794368616e6e656c5360408201527f656c6563746f723d2241222f3e3c2f66696c7465723e00000000000000000000606082015250565b7f222063793d220000000000000000000000000000000000000000000000000000600082015250565b7f3c636972636c652063783d220000000000000000000000000000000000000000600082015250565b7f7b2276616c7565223a202252696e6773227d2c00000000000000000000000000600082015250565b7f22207d2c207b2274726169745f74797065223a202253617475726174696f6e2260008201527f2c202276616c7565223a20220000000000000000000000000000000000000000602082015250565b7f3c66654d6f7270686f6c6f677920696e3d2274757262756c656e63652220726560008201527f73756c743d226d6f727068656422206f70657261746f723d2265726f6465222060208201527f7261646975733d2231223e3c2f66654d6f7270686f6c6f67793e000000000000604082015250565b7f22207374796c653d220000000000000000000000000000000000000000000000600082015250565b7f3c73746f70206f66667365743d223025222073746f702d636f6c6f723d22626c60008201527f61636b22202f3e00000000000000000000000000000000000000000000000000602082015250565b7f3c666554757262756c656e636520747970653d2274757262756c656e6365222060008201527f736565643d220000000000000000000000000000000000000000000000000000602082015250565b7f3c666554757262756c656e636520747970653d2274757262756c656e6365222060008201527f736565643d2235302220626173654672657175656e63793d2200000000000000602082015250565b7f3c6c696e6561724772616469656e742069643d226261636b53706c617368477260008201527f6164222078323d223025222079323d2231303025223e00000000000000000000602082015250565b7f2220784368616e6e656c53656c6563746f723d22472220794368616e6e656c5360008201527f656c6563746f723d2252222f3e203c2f66696c7465723e000000000000000000602082015250565b7f3c6665446966667573654c69676874696e6720696e3d226d6f7270686564222060008201527f6c69676874696e672d636f6c6f723d2268736c28000000000000000000000000602082015250565b7f3c6665446973706c6163656d656e744d617020696e323d2274757262756c656e60008201527f63652220696e3d22536f757263654772617068696322207363616c653d220000602082015250565b7f7b2276616c7565223a20224672616d65227d2c00000000000000000000000000600082015250565b7f22207374726f6b653d2200000000000000000000000000000000000000000000600082015250565b7f2c00000000000000000000000000000000000000000000000000000000000000600082015250565b7f302e000000000000000000000000000000000000000000000000000000000000600082015250565b7f3c73746f70206f66667365743d22353025222073746f702d636f6c6f723d227760008201527f6869746522202f3e000000000000000000000000000000000000000000000000602082015250565b7f22206e756d4f6374617665733d22352220726573756c743d2274757262756c6560008201527f6e6365222f3e0000000000000000000000000000000000000000000000000000602082015250565b7f3c2f66696c7465723e3c7265637420783d22302220793d22302220776964746860008201527f3d2236303022206865696768743d2236303022207374796c653d2266696c746560208201527f723a2075726c28236261636b67726f756e64446973706c6163656d656e74292260408201527f202f3e0000000000000000000000000000000000000000000000000000000000606082015250565b7f7b2276616c7565223a20224261636b67726f756e64227d2c207b22747261697460008201527f5f74797065223a2022436f6c6f75722031222c202276616c7565223a22000000602082015250565b7f68736c2800000000000000000000000000000000000000000000000000000000600082015250565b7f3c2f6c696e6561724772616469656e743e000000000000000000000000000000600082015250565b7f252c203530252900000000000000000000000000000000000000000000000000600082015250565b7f3c66696c7465722069643d220000000000000000000000000000000000000000600082015250565b7f7b2276616c7565223a20224261636b2053706c617368227d2c00000000000000600082015250565b7f7b2276616c7565223a20224261636b2048656164227d2c207b2274726169745f60008201527f74797065223a2022436f6c6f75722032222c202276616c7565223a2022000000602082015250565b7f3c7265637420783d22302220793d2230222077696474683d223630302220686560008201527f696768743d22363030222066696c6c3d22776869746522202f3e000000000000602082015250565b7f7b2274726169745f74797065223a202254797065222c202276616c7565223a2060008201527f22536b65746368227d2c00000000000000000000000000000000000000000000602082015250565b7f3c6665446973706c6163656d656e744d617020696e323d2274757262756c656e60008201527f63652220696e3d22536f757263654772617068696322207363616c653d22323060208201527f302220784368616e6e656c53656c6563746f723d22472220794368616e6e656c60408201527f53656c6563746f723d2241222f3e3c2f66696c7465723e000000000000000000606082015250565b7f302e300000000000000000000000000000000000000000000000000000000000600082015250565b7f227d000000000000000000000000000000000000000000000000000000000000600082015250565b7f2220723d22000000000000000000000000000000000000000000000000000000600082015250565b7f3c6665446973706c6163656d656e744d617020696e323d2274757262756c656e60008201527f63652220696e3d22536f757263654772617068696322207363616c653d22353060208201527f2220784368616e6e656c53656c6563746f723d22522220794368616e6e656c5360408201527f656c6563746f723d2247222f3e203c2f66696c7465723e000000000000000000606082015250565b7f22206e756d4f6374617665733d22352220726573756c743d2274757262756c6560008201527f6e6365222f3e3c6665446973706c6163656d656e744d617020696e323d22747560208201527f7262756c656e63652220696e3d22536f7572636547726170686963222073636160408201527f6c653d2200000000000000000000000000000000000000000000000000000000606082015250565b7f302e303030000000000000000000000000000000000000000000000000000000600082015250565b7f2220626173654672657175656e63793d22000000000000000000000000000000600082015250565b7f3c7376672077696474683d2236303022206865696768743d223630302220766960008201527f6577426f783d2230203020363030203630302220786d6c6e733d22687474703a60208201527f2f2f7777772e77332e6f72672f323030302f737667223e000000000000000000604082015250565b7f222077696474683d223330302522206865696768743d2233303025223e000000600082015250565b7f252c20353025292220737572666163655363616c653d22000000000000000000600082015250565b7f22207374726f6b652d77696474683d2200000000000000000000000000000000600082015250565b7f223e3c666544697374616e744c6967687420617a696d7574683d22343522206560008201527f6c65766174696f6e3d2200000000000000000000000000000000000000000000602082015250565b7f2261747472696275746573223a205b0000000000000000000000000000000000600082015250565b7f3c6665446973706c6163656d656e744d617020696e323d2274757262756c656e60008201527f63652220696e3d22536f757263654772617068696322207363616c653d22313060208201527f302220784368616e6e656c53656c6563746f723d22522220794368616e6e656c60408201527f53656c6563746f723d2247222f3e3c2f66696c7465723e000000000000000000606082015250565b7f222f3e0000000000000000000000000000000000000000000000000000000000600082015250565b7f5d00000000000000000000000000000000000000000000000000000000000000600082015250565b7f3c7265637420783d2235302220793d223530222077696474683d22353030222060008201527f6865696768743d2235303022207374726f6b653d22626c61636b22206f70616360208201527f6974793d22302e35222066696c6c3d22776869746522207374726f6b652d776960408201527f6474683d22000000000000000000000000000000000000000000000000000000606082015250565b7f2220784368616e6e656c53656c6563746f723d22472220794368616e6e656c5360008201527f656c6563746f723d2241222f3e203c2f66696c7465723e000000000000000000602082015250565b7f2c20000000000000000000000000000000000000000000000000000000000000600082015250565b7f3c2f646566733e00000000000000000000000000000000000000000000000000600082015250565b7f746f55696e74385f6f766572666c6f7700000000000000000000000000000000600082015250565b7f222066696c6c3d22000000000000000000000000000000000000000000000000600082015250565b7f22202f3e3c2f6665446966667573654c69676874696e673e0000000000000000600082015250565b7f7b2274726169745f74797065223a2022436f6c6f757220436f6d706f7369746960008201527f6f6e2054797065222c202276616c7565223a2022000000000000000000000000602082015250565b7f22207374796c653d2266696c7465723a2075726c28236672616d65446973706c60008201527f6163656d656e7429222f3e000000000000000000000000000000000000000000602082015250565b7f3c646566733e0000000000000000000000000000000000000000000000000000600082015250565b7f746f55696e74385f6f75744f66426f756e647300000000000000000000000000600082015250565b7f22207d2c00000000000000000000000000000000000000000000000000000000600082015250565b7f2220794368616e6e656c53656c6563746f723d224122202f3e203c2f66696c7460008201527f65723e0000000000000000000000000000000000000000000000000000000000602082015250565b7f7b2274726169745f74797065223a20224c6179657273222c202276616c75652260008201527f3a20220000000000000000000000000000000000000000000000000000000000602082015250565b7f3c6665446973706c6163656d656e744d617020696e323d2274757262756c656e60008201527f63652220696e3d22536f757263654772617068696322207363616c653d22323060208201527f302220784368616e6e656c53656c6563746f723d220000000000000000000000604082015250565b7f3c2f7376673e0000000000000000000000000000000000000000000000000000600082015250565b7f7b2276616c7565223a202246726f6e742048656164227d2c207b22747261697460008201527f5f74797065223a2022436f6c6f75722033222c202276616c7565223a20220000602082015250565b7f7b2276616c7565223a2022426f6479227d2c0000000000000000000000000000600082015250565b7f7b2274726169745f74797065223a202254797065222c202276616c7565223a2060008201527f2246756c6c79205061696e746564227d2c000000000000000000000000000000602082015250565b7f7b2276616c7565223a202245796573227d2c0000000000000000000000000000600082015250565b61588381614457565b811461588e57600080fd5b50565b61589a8161447b565b81146158a557600080fd5b5056fea26469706673582212209843f12aa6ef0daa0ab05f16ad8cb3a8e4753ba8bc17597d73bd1eca5e54ec3564736f6c63430008040033",
  "linkReferences": {},
  "deployedLinkReferences": {}
}