{
  "_format": "hh-sol-artifact-1",
  "contractName": "SplitFactory",
  "sourceName": "contracts/splits/SplitFactory.sol",
  "abi": [
    {
      "inputs": [
        {
          "internalType": "address",
          "name": "splitter_",
          "type": "address"
        },
        {
          "internalType": "address",
          "name": "wethAddress_",
          "type": "address"
        }
      ],
      "stateMutability": "nonpayable",
      "type": "constructor"
    },
    {
      "inputs": [
        {
          "internalType": "bytes32",
          "name": "merkleRoot_",
          "type": "bytes32"
        }
      ],
      "name": "createSplit",
      "outputs": [
        {
          "internalType": "address",
          "name": "splitProxy",
          "type": "address"
        }
      ],
      "stateMutability": "nonpayable",
      "type": "function"
    },
    {
      "inputs": [],
      "name": "merkleRoot",
      "outputs": [
        {
          "internalType": "bytes32",
          "name": "",
          "type": "bytes32"
        }
      ],
      "stateMutability": "view",
      "type": "function"
    },
    {
      "inputs": [],
      "name": "splitter",
      "outputs": [
        {
          "internalType": "address",
          "name": "",
          "type": "address"
        }
      ],
      "stateMutability": "view",
      "type": "function"
    },
    {
      "inputs": [],
      "name": "wethAddress",
      "outputs": [
        {
          "internalType": "address",
          "name": "",
          "type": "address"
        }
      ],
      "stateMutability": "view",
      "type": "function"
    }
  ],
  "bytecode": "0x60c060405234801561001057600080fd5b50604051610ab7380380610ab7833981810160405281019061003291906100bc565b8173ffffffffffffffffffffffffffffffffffffffff1660808173ffffffffffffffffffffffffffffffffffffffff1660601b815250508073ffffffffffffffffffffffffffffffffffffffff1660a08173ffffffffffffffffffffffffffffffffffffffff1660601b815250505050610141565b6000815190506100b68161012a565b92915050565b600080604083850312156100cf57600080fd5b60006100dd858286016100a7565b92505060206100ee858286016100a7565b9150509250929050565b60006101038261010a565b9050919050565b600073ffffffffffffffffffffffffffffffffffffffff82169050919050565b610133816100f8565b811461013e57600080fd5b50565b60805160601c60a05160601c61094c61016b60003960006101070152600060e3015261094c6000f3fe608060405234801561001057600080fd5b506004361061004c5760003560e01c80632eb4a7ab146100515780633cd8045e1461006f5780634f0e0ef31461008d57806381a77c8c146100ab575b600080fd5b6100596100db565b6040516100669190610215565b60405180910390f35b6100776100e1565b60405161008491906101fa565b60405180910390f35b610095610105565b6040516100a291906101fa565b60405180910390f35b6100c560048036038101906100c091906101b3565b610129565b6040516100d291906101fa565b60405180910390f35b60005481565b7f000000000000000000000000000000000000000000000000000000000000000081565b7f000000000000000000000000000000000000000000000000000000000000000081565b600081600081905550816040516020016101439190610215565b6040516020818303038152906040528051906020012060405161016590610191565b8190604051809103906000f5905080158015610185573d6000803e3d6000fd5b50905060008055919050565b6106938061028483390190565b6000813590506101ad8161026c565b92915050565b6000602082840312156101c557600080fd5b60006101d38482850161019e565b91505092915050565b6101e581610230565b82525050565b6101f481610242565b82525050565b600060208201905061020f60008301846101dc565b92915050565b600060208201905061022a60008301846101eb565b92915050565b600061023b8261024c565b9050919050565b6000819050919050565b600073ffffffffffffffffffffffffffffffffffffffff82169050919050565b61027581610242565b811461028057600080fd5b5056fe608060405234801561001057600080fd5b503373ffffffffffffffffffffffffffffffffffffffff16633cd8045e6040518163ffffffff1660e01b8152600401602060405180830381600087803b15801561005957600080fd5b505af115801561006d573d6000803e3d6000fd5b505050506040513d601f19601f820116820180604052508101906100919190610246565b600360006101000a81548173ffffffffffffffffffffffffffffffffffffffff021916908373ffffffffffffffffffffffffffffffffffffffff1602179055503373ffffffffffffffffffffffffffffffffffffffff16634f0e0ef36040518163ffffffff1660e01b8152600401602060405180830381600087803b15801561011957600080fd5b505af115801561012d573d6000803e3d6000fd5b505050506040513d601f19601f820116820180604052508101906101519190610246565b600260006101000a81548173ffffffffffffffffffffffffffffffffffffffff021916908373ffffffffffffffffffffffffffffffffffffffff1602179055503373ffffffffffffffffffffffffffffffffffffffff16632eb4a7ab6040518163ffffffff1660e01b8152600401602060405180830381600087803b1580156101d957600080fd5b505af11580156101ed573d6000803e3d6000fd5b505050506040513d601f19601f82011682018060405250810190610211919061026f565b600081905550610302565b60008151905061022b816102d4565b92915050565b600081519050610240816102eb565b92915050565b60006020828403121561025857600080fd5b60006102668482850161021c565b91505092915050565b60006020828403121561028157600080fd5b600061028f84828501610231565b91505092915050565b60006102a3826102b4565b9050919050565b6000819050919050565b600073ffffffffffffffffffffffffffffffffffffffff82169050919050565b6102dd81610298565b81146102e857600080fd5b50565b6102f4816102aa565b81146102ff57600080fd5b50565b610382806103116000396000f3fe6080604052600436106100435760003560e01c80632eb4a7ab146100965780633cd8045e146100c157806381e580d3146100ec578063ba0bafb41461012957610063565b3661006357346006600082825461005a919061026a565b92505081905550005b600061006d610154565b905060405136600082376000803683855af43d806000843e8160008114610092578184f35b8184fd5b3480156100a257600080fd5b506100ab61017e565b6040516100b89190610234565b60405180910390f35b3480156100cd57600080fd5b506100d6610154565b6040516100e39190610219565b60405180910390f35b3480156100f857600080fd5b50610113600480360381019061010e91906101c3565b610184565b604051610120919061024f565b60405180910390f35b34801561013557600080fd5b5061013e6101a8565b60405161014b919061024f565b60405180910390f35b6000600360009054906101000a900473ffffffffffffffffffffffffffffffffffffffff16905090565b60005481565b6004818154811061019457600080fd5b906000526020600020016000915090505481565b60015481565b6000813590506101bd81610335565b92915050565b6000602082840312156101d557600080fd5b60006101e3848285016101ae565b91505092915050565b6101f5816102c0565b82525050565b610204816102d2565b82525050565b610213816102fc565b82525050565b600060208201905061022e60008301846101ec565b92915050565b600060208201905061024960008301846101fb565b92915050565b6000602082019050610264600083018461020a565b92915050565b6000610275826102fc565b9150610280836102fc565b9250827fffffffffffffffffffffffffffffffffffffffffffffffffffffffffffffffff038211156102b5576102b4610306565b5b828201905092915050565b60006102cb826102dc565b9050919050565b6000819050919050565b600073ffffffffffffffffffffffffffffffffffffffff82169050919050565b6000819050919050565b7f4e487b7100000000000000000000000000000000000000000000000000000000600052601160045260246000fd5b61033e816102fc565b811461034957600080fd5b5056fea2646970667358221220a2fb124a986eb169aea0bf804375e5ba789a92e0399149c268025f83793ce53f64736f6c63430008040033a2646970667358221220dd6ebb119eaa379f66a364d5b9c9a166299bb9bf0d7568eb438af6a02021657164736f6c63430008040033",
  "linkReferences": {},
  "deployedLinkReferences": {}
}