{
  "_format": "hh-sol-artifact-1",
  "contractName": "SplitStorage",
  "sourceName": "contracts/splits/SplitStorage.sol",
  "abi": [
    {
      "inputs": [
        {
          "internalType": "uint256",
          "name": "",
          "type": "uint256"
        }
      ],
      "name": "balanceForWindow",
      "outputs": [
        {
          "internalType": "uint256",
          "name": "",
          "type": "uint256"
        }
      ],
      "stateMutability": "view",
      "type": "function"
    },
    {
      "inputs": [],
      "name": "currentWindow",
      "outputs": [
        {
          "internalType": "uint256",
          "name": "",
          "type": "uint256"
        }
      ],
      "stateMutability": "view",
      "type": "function"
    },
    {
      "inputs": [],
      "name": "merkleRoot",
      "outputs": [
        {
          "internalType": "bytes32",
          "name": "",
          "type": "bytes32"
        }
      ],
      "stateMutability": "view",
      "type": "function"
    }
  ],
  "bytecode": "0x608060405234801561001057600080fd5b506101d5806100206000396000f3fe608060405234801561001057600080fd5b50600436106100415760003560e01c80632eb4a7ab1461004657806381e580d314610064578063ba0bafb414610094575b600080fd5b61004e6100b2565b60405161005b919061013e565b60405180910390f35b61007e600480360381019061007991906100f7565b6100b8565b60405161008b9190610159565b60405180910390f35b61009c6100dc565b6040516100a99190610159565b60405180910390f35b60005481565b600481815481106100c857600080fd5b906000526020600020016000915090505481565b60015481565b6000813590506100f181610188565b92915050565b60006020828403121561010957600080fd5b6000610117848285016100e2565b91505092915050565b61012981610174565b82525050565b6101388161017e565b82525050565b60006020820190506101536000830184610120565b92915050565b600060208201905061016e600083018461012f565b92915050565b6000819050919050565b6000819050919050565b6101918161017e565b811461019c57600080fd5b5056fea2646970667358221220cc80186a37926d475d60b47a290f2ebd5d487a176d34cdc438f7aa9c83f4a91964736f6c63430008040033",
  "linkReferences": {},
  "deployedLinkReferences": {}
}